{"contracts/HappyBirthday.sol":{"SelfHappyBirthday":{"abi":[{"inputs":[{"internalType":"address","name":"_identityVerificationHub","type":"address"},{"internalType":"uint256","name":"_scope","type":"uint256"},{"internalType":"uint256","name":"_attestationId","type":"uint256"},{"internalType":"address","name":"_token","type":"address"},{"internalType":"bool","name":"_olderThanEnabled","type":"bool"},{"internalType":"uint256","name":"_olderThan","type":"uint256"},{"internalType":"bool","name":"_forbiddenCountriesEnabled","type":"bool"},{"internalType":"uint256[4]","name":"_forbiddenCountriesListPacked","type":"uint256[4]"},{"internalType":"bool[3]","name":"_ofacEnabled","type":"bool[3]"}],"stateMutability":"nonpayable","type":"constructor"},{"inputs":[],"name":"INSUFFICIENT_CHARCODE_LEN","type":"error"},{"inputs":[],"name":"InvalidAttestationId","type":"error"},{"inputs":[],"name":"InvalidDateLength","type":"error"},{"inputs":[],"name":"InvalidDayRange","type":"error"},{"inputs":[],"name":"InvalidFieldElement","type":"error"},{"inputs":[],"name":"InvalidMonthRange","type":"error"},{"inputs":[],"name":"InvalidScope","type":"error"},{"inputs":[],"name":"InvalidYearRange","type":"error"},{"inputs":[{"internalType":"address","name":"owner","type":"address"}],"name":"OwnableInvalidOwner","type":"error"},{"inputs":[{"internalType":"address","name":"account","type":"address"}],"name":"OwnableUnauthorizedAccount","type":"error"},{"inputs":[],"name":"RegisteredNullifier","type":"error"},{"anonymous":false,"inputs":[{"indexed":true,"internalType":"address","name":"user","type":"address"}],"name":"Birthday","type":"event"},{"anonymous":false,"inputs":[{"indexed":true,"internalType":"address","name":"previousOwner","type":"address"},{"indexed":true,"internalType":"address","name":"newOwner","type":"address"}],"name":"OwnershipTransferred","type":"event"},{"inputs":[{"internalType":"address","name":"","type":"address"}],"name":"isBirthday","outputs":[{"internalType":"bool","name":"","type":"bool"}],"stateMutability":"view","type":"function"},{"inputs":[],"name":"owner","outputs":[{"internalType":"address","name":"","type":"address"}],"stateMutability":"view","type":"function"},{"inputs":[],"name":"renounceOwnership","outputs":[],"stateMutability":"nonpayable","type":"function"},{"inputs":[{"internalType":"address","name":"newOwner","type":"address"}],"name":"transferOwnership","outputs":[],"stateMutability":"nonpayable","type":"function"},{"inputs":[{"components":[{"internalType":"uint256[2]","name":"a","type":"uint256[2]"},{"internalType":"uint256[2][2]","name":"b","type":"uint256[2][2]"},{"internalType":"uint256[2]","name":"c","type":"uint256[2]"},{"internalType":"uint256[21]","name":"pubSignals","type":"uint256[21]"}],"internalType":"struct IVcAndDiscloseCircuitVerifier.VcAndDiscloseProof","name":"proof","type":"tuple"}],"name":"verifySelfProof","outputs":[],"stateMutability":"nonpayable","type":"function"}],"evm":{"bytecode":{"linkReferences":{},"object":"60a060405234801561001057600080fd5b50604051611a92380380611a9283398101604081905261002f916102d8565b336001600160a01b038a16608052600089905560018890556002805460ff19908116881515179091556003869055600480549091168515151781558a908a908a9089908990899089908990610088906005908490610139565b506100966009826003610177565b5050506001600160a01b03871695506100cf94505050505057604051631e4fbdf760e01b81526000600482015260240160405180910390fd5b6100d8816100e7565b505050505050505050506103ac565b600a80546001600160a01b038381166001600160a01b0319831681179093556040519116919082907f8be0079c531659141344cd1fd0a4f28419497f9722a3daafe3b4186f6b6457e090600090a35050565b8260048101928215610167579160200282015b8281111561016757825182559160200191906001019061014c565b50610173929150610200565b5090565b6001830191839082156101675791602002820160005b838211156101ca57835183826101000a81548160ff021916908315150217905550926020019260010160208160000104928301926001030261018d565b80156101f75782816101000a81549060ff02191690556001016020816000010492830192600103026101ca565b50506101739291505b5b808211156101735760008155600101610201565b80516001600160a01b038116811461022c57600080fd5b919050565b8051801515811461022c57600080fd5b604051601f8201601f191681016001600160401b038111828210171561027757634e487b7160e01b600052604160045260246000fd5b604052919050565b600082601f83011261029057600080fd5b61029a6060610241565b8060608401858111156102ac57600080fd5b845b818110156102cd576102bf81610231565b8452602093840193016102ae565b509095945050505050565b60008060008060008060008060006101c08a8c0312156102f757600080fd5b6103008a610215565b60208b015160408c0151919a509850965061031d60608b01610215565b955061032b60808b01610231565b60a08b0151909550935061034160c08b01610231565b92508a60ff8b011261035257600080fd5b61035c6080610241565b806101608c018d81111561036f57600080fd5b60e08d015b8181101561038c578051845260209384019301610374565b5081945061039a8e8261027f565b93505050509295985092959850929598565b6080516116cb6103c760003960006101ff01526116cb6000f3fe608060405234801561001057600080fd5b50600436106100575760003560e01c8063715018a61461005c5780638da5cb5b146100665780639efa4a8714610086578063f2fde38b146100b9578063fdc60967146100cc575b600080fd5b6100646100df565b005b600a546040516001600160a01b0390911681526020015b60405180910390f35b6100a9610094366004611097565b600c6020526000908152604090205460ff1681565b604051901515815260200161007d565b6100646100c7366004611097565b6100f3565b6100646100da3660046111fb565b610136565b6100e76103f8565b6100f16000610425565b565b6100fb6103f8565b6001600160a01b03811661012a57604051631e4fbdf760e01b8152600060048201526024015b60405180910390fd5b61013381610425565b50565b60608101516102600151600054146101615760405163725a844f60e01b815260040160405180910390fd5b606081015161010001516001541461018c576040516309763aff60e11b815260040160405180910390fd5b606081015160e001516000908152600b602052604090205460ff16156101c557604051631165e35160e11b815260040160405180910390fd5b6040805160c08101825260025460ff90811615158252600354602083015260048054909116151582840152825160808101938490526000937f00000000000000000000000000000000000000000000000000000000000000006001600160a01b03169363d1ea63a29390926060840192909160059182845b81548152602001906001019080831161023d57505050918352505060408051606081019182905260209092019190600990600390826000855b825461010083900a900460ff16151581526020600192830181810494850194909303909202910180841161027657905050505050508152602001858152506040518263ffffffff1660e01b81526004016102d0919061139c565b61018060405180830381865afa1580156102ee573d6000803e3d6000fd5b505050506040513d601f19601f8201168201806040525081019061031291906114aa565b90506103218160a00151610477565b1561039c5760608101516000908152600b602090815260408083208054600160ff19918216811790925582860180516001600160a01b039081168752600c909552838620805490921690921790555190519116917f4674819a61e757aeeccd68b80e9d8c29e0a80afb3120c96b0504c13ee4190d0191a25050565b60405162461bcd60e51b815260206004820152602b60248201527f4e6f7420656c696769626c653a204e6f742077697468696e203520646179732060448201526a6f6620626972746864617960a81b6064820152608401610121565b600a546001600160a01b031633146100f15760405163118cdaa760e01b8152336004820152602401610121565b600a80546001600160a01b038381166001600160a01b0319831681179093556040519116919082907f8be0079c531659141344cd1fd0a4f28419497f9722a3daafe3b4186f6b6457e090600090a35050565b6000806104838361066f565b90506000610490826107fe565b604080516002808252818301909252919250829160009160208201818036833750506040805160028082528183019092529293506000929150602082018180368337019050509050826000815181106104eb576104eb6112ae565b602001015160f81c60f81b82600081518110610509576105096112ae565b60200101906001600160f81b031916908160001a90535082600181518110610533576105336112ae565b602001015160f81c60f81b82600181518110610551576105516112ae565b60200101906001600160f81b031916908160001a9053508260038151811061057b5761057b6112ae565b602001015160f81c60f81b81600081518110610599576105996112ae565b60200101906001600160f81b031916908160001a905350826004815181106105c3576105c36112ae565b602001015160f81c60f81b816001815181106105e1576105e16112ae565b60200101906001600160f81b031916908160001a905350604051829082906000906106129083908590602001611560565b6040516020818303038152906040529050600061062e8261081b565b90504260008282111561064c57610645838361159e565b9050610659565b610656828461159e565b90505b6201518010159c9b505050505050505050505050565b80516060907f30644e72e131a029b85045b68181585d2833e84879b9709143e1f593f00000011115806106c6575060208201517f30644e72e131a029b85045b68181585d2833e84879b9709143e1f593f000000111155b806106f5575060408201517f30644e72e131a029b85045b68181585d2833e84879b9709143e1f593f000000111155b1561071357604051633ae4ed6b60e01b815260040160405180910390fd5b60408051606081018252601f80825260208201819052818301528151605d808252608082019093529091600091906020820181803683370190505090506000805b60038110156107f4576000868260038110610771576107716112ae565b6020020151905060005b85836003811061078d5761078d6112ae565b602002015160ff168160ff1610156107ea578160ff1660f81b8585806107b2906115b1565b9650815181106107c4576107c46112ae565b60200101906001600160f81b031916908160001a90535060089190911c9060010161077b565b5050600101610754565b5090949350505050565b6060610815610810836039603e6109ee565b610ae4565b92915050565b805160009082906006146108425760405163b337595360e01b815260040160405180910390fd5b603160f81b8160028151811061085a5761085a6112ae565b01602001516001600160f81b03191611806108c9575080600281518110610883576108836112ae565b6020910101516001600160f81b031916603160f81b1480156108c95750601960f91b816003815181106108b8576108b86112ae565b01602001516001600160f81b031916115b156108e7576040516304bcc4f160e31b815260040160405180910390fd5b603360f81b816004815181106108ff576108ff6112ae565b01602001516001600160f81b031916118061096e575080600481518110610928576109286112ae565b6020910101516001600160f81b031916603360f81b14801561096e5750603160f81b8160058151811061095d5761095d6112ae565b01602001516001600160f81b031916115b1561098c57604051638930acef60e01b815260040160405180910390fd5b60006109a361099e8560006002610cb7565b610d7a565b6109af906107d06115ca565b905060006109c361099e8660026004610cb7565b905060006109d761099e8760046006610cb7565b90506109e4838383610dea565b9695505050505050565b606081845111610a115760405163fe9a439f60e01b815260040160405180910390fd5b6000610a1d848461159e565b610a289060016115ca565b67ffffffffffffffff811115610a4057610a406110c7565b6040519080825280601f01601f191660200182016040528015610a6a576020820181803683370190505b509050835b838111610adb57858181518110610a8857610a886112ae565b01602001516001600160f81b03191682610aa2878461159e565b81518110610ab257610ab26112ae565b60200101906001600160f81b031916908160001a90535080610ad3816115b1565b915050610a6f565b50949350505050565b80516060908290600614610b0b5760405163b337595360e01b815260040160405180910390fd5b603160f81b81600281518110610b2357610b236112ae565b01602001516001600160f81b0319161180610b92575080600281518110610b4c57610b4c6112ae565b6020910101516001600160f81b031916603160f81b148015610b925750601960f91b81600381518110610b8157610b816112ae565b01602001516001600160f81b031916115b15610bb0576040516304bcc4f160e31b815260040160405180910390fd5b603360f81b81600481518110610bc857610bc86112ae565b01602001516001600160f81b0319161180610c37575080600481518110610bf157610bf16112ae565b6020910101516001600160f81b031916603360f81b148015610c375750603160f81b81600581518110610c2657610c266112ae565b01602001516001600160f81b031916115b15610c5557604051638930acef60e01b815260040160405180910390fd5b6000610c648460006002610cb7565b90506000610c758560026004610cb7565b90506000610c868660046006610cb7565b9050808284604051602001610c9d939291906115dd565b604051602081830303815290604052945050505050919050565b6060836000610cc6858561159e565b67ffffffffffffffff811115610cde57610cde6110c7565b6040519080825280601f01601f191660200182016040528015610d08576020820181803683370190505b509050845b84811015610d7057828181518110610d2757610d276112ae565b01602001516001600160f81b03191682610d41888461159e565b81518110610d5157610d516112ae565b60200101906001600160f81b031916908160001a905350600101610d0d565b5095945050505050565b805160009082908203610d905750600092915050565b60008060005b8351811015610adb576030848281518110610db357610db36112ae565b0160200151610dc5919060f81c611613565b60ff16925082610dd683600a61162c565b610de091906115ca565b9150600101610d96565b6000806107b2851080610dfe575061083485115b15610e1c576040516305bd032560e21b815260040160405180910390fd5b6001841080610e2b5750600c84115b15610e49576040516304bcc4f160e31b815260040160405180910390fd5b506107b25b848161ffff161015610ea457610e678161ffff16610ff6565b15610e8157610e7a6301e28500836115ca565b9150610e92565b610e8f6301e13380836115ca565b91505b80610e9c81611643565b915050610e4e565b610eac611078565b601f8152610eb986610ff6565b15610eca57601d6020820152610ed2565b601c60208201525b601f60408201819052601e606083018190526080830182905260a0830181905260c0830182905260e08301829052610100830181905261012083018290526101408301526101608201526001841080610f4d575080610f3260018761159e565b600c8110610f4257610f426112ae565b602002015160ff1684115b15610f6b57604051638930acef60e01b815260040160405180910390fd5b600191505b848261ffff161015610fd45780610f88600184611664565b61ffff16600c8110610f9c57610f9c6112ae565b6020020151610fb19060ff166201518061167e565b610fc09062ffffff16846115ca565b925081610fcc81611643565b925050610f70565b610fdf60018561159e565b610fec906201518061162c565b6109e490846115ca565b60006107b2821080611009575061083482115b15611027576040516305bd032560e21b815260040160405180910390fd5b61103260048361169c565b1561103f57506000919050565b61104a60648361169c565b1561105757506001919050565b6110636101908361169c565b1561107057506000919050565b506001919050565b604051806101800160405280600c906020820280368337509192915050565b6000602082840312156110a957600080fd5b81356001600160a01b03811681146110c057600080fd5b9392505050565b634e487b7160e01b600052604160045260246000fd5b6040516080810167ffffffffffffffff81118282101715611100576111006110c7565b60405290565b60405160e0810167ffffffffffffffff81118282101715611100576111006110c7565b604051601f8201601f1916810167ffffffffffffffff81118282101715611152576111526110c7565b604052919050565b600082601f83011261116b57600080fd5b60006111776040611129565b905080604084018581111561118b57600080fd5b845b818110156111a557803583526020928301920161118d565b509195945050505050565b600082601f8301126111c157600080fd5b60006102a06111cf81611129565b9150830181858211156111e157600080fd5b845b828110156111a55780358252602091820191016111e3565b60006103a082840312801561120f57600080fd5b50600061121a6110dd565b611224858561115a565b815284605f850112611234578182fd5b604061123f81611129565b8060c0870188811115611250578586fd5b6040880195505b8086101561127a57611269898761115a565b835294830194602090920191611257565b81602086015261128a898261115a565b6040860152505050506112a18561010086016111b0565b6060820152949350505050565b634e487b7160e01b600052603260045260246000fd5b8060005b60038110156112e957815115158452602093840193909101906001016112c8565b50505050565b8060005b60028110156112e95781518452602093840193909101906001016112f3565b61131d8282516112ef565b60208101516040830160005b60028110156113535761133d8284516112ef565b6020929092019160409190910190600101611329565b505050604081015161136860c08401826112ef565b506060810151610100830160005b6015811015611395578251825260209283019290910190600101611376565b5050505050565b60006104e0820190508251151582526020830151602083015260408301511515604083015260608301516060830160005b60048110156113ec5782518252602092830192909101906001016113cd565b505050608083015161140160e08401826112c4565b5060a0830151611415610140840182611312565b5092915050565b60006114286060611129565b905080606083018481111561143c57600080fd5b835b8181101561145657805183526020928301920161143e565b50505092915050565b600082601f83011261147057600080fd5b600061147c6080611129565b905080608084018581111561149057600080fd5b845b818110156111a5578051835260209283019201611492565b60006101808284031280156114be57600080fd5b5060006114c9611106565b835181526020808501519082015260408085015190820152606080850151908201526080808501519082015260bf84018513611503578182fd5b6115108560a0860161141c565b60a082015261152385610100860161145f565b60c0820152949350505050565b6000815160005b818110156115515760208185018101518683015201611537565b50600093019283525090919050565b61323560f01b8152600061158061157a6002840186611530565b84611530565b949350505050565b634e487b7160e01b600052601160045260246000fd5b8181038181111561081557610815611588565b6000600182016115c3576115c3611588565b5060010190565b8082018082111561081557610815611588565b60006115e98286611530565b602d60f81b81526115fd6001820186611530565b9050602d60f81b81526109e46001820185611530565b60ff828116828216039081111561081557610815611588565b808202811582820484141761081557610815611588565b600061ffff821661ffff810361165b5761165b611588565b60010192915050565b61ffff828116828216039081111561081557610815611588565b62ffffff818116838216029081169081811461141557611415611588565b6000826116b957634e487b7160e01b600052601260045260246000fd5b50069056fea164736f6c634300081c000a","opcodes":"PUSH1 0xA0 PUSH1 0x40 MSTORE CALLVALUE DUP1 ISZERO PUSH2 0x10 JUMPI PUSH1 0x0 DUP1 REVERT JUMPDEST POP PUSH1 0x40 MLOAD PUSH2 0x1A92 CODESIZE SUB DUP1 PUSH2 0x1A92 DUP4 CODECOPY DUP2 ADD PUSH1 0x40 DUP2 SWAP1 MSTORE PUSH2 0x2F SWAP2 PUSH2 0x2D8 JUMP JUMPDEST CALLER PUSH1 0x1 PUSH1 0x1 PUSH1 0xA0 SHL SUB DUP11 AND PUSH1 0x80 MSTORE PUSH1 0x0 DUP10 SWAP1 SSTORE PUSH1 0x1 DUP9 SWAP1 SSTORE PUSH1 0x2 DUP1 SLOAD PUSH1 0xFF NOT SWAP1 DUP2 AND DUP9 ISZERO ISZERO OR SWAP1 SWAP2 SSTORE PUSH1 0x3 DUP7 SWAP1 SSTORE PUSH1 0x4 DUP1 SLOAD SWAP1 SWAP2 AND DUP6 ISZERO ISZERO OR DUP2 SSTORE DUP11 SWAP1 DUP11 SWAP1 DUP11 SWAP1 DUP10 SWAP1 DUP10 SWAP1 DUP10 SWAP1 DUP10 SWAP1 DUP10 SWAP1 PUSH2 0x88 SWAP1 PUSH1 0x5 SWAP1 DUP5 SWAP1 PUSH2 0x139 JUMP JUMPDEST POP PUSH2 0x96 PUSH1 0x9 DUP3 PUSH1 0x3 PUSH2 0x177 JUMP JUMPDEST POP POP POP PUSH1 0x1 PUSH1 0x1 PUSH1 0xA0 SHL SUB DUP8 AND SWAP6 POP PUSH2 0xCF SWAP5 POP POP POP POP POP JUMPI PUSH1 0x40 MLOAD PUSH4 0x1E4FBDF7 PUSH1 0xE0 SHL DUP2 MSTORE PUSH1 0x0 PUSH1 0x4 DUP3 ADD MSTORE PUSH1 0x24 ADD PUSH1 0x40 MLOAD DUP1 SWAP2 SUB SWAP1 REVERT JUMPDEST PUSH2 0xD8 DUP2 PUSH2 0xE7 JUMP JUMPDEST POP POP POP POP POP POP POP POP POP POP PUSH2 0x3AC JUMP JUMPDEST PUSH1 0xA DUP1 SLOAD PUSH1 0x1 PUSH1 0x1 PUSH1 0xA0 SHL SUB DUP4 DUP2 AND PUSH1 0x1 PUSH1 0x1 PUSH1 0xA0 SHL SUB NOT DUP4 AND DUP2 OR SWAP1 SWAP4 SSTORE PUSH1 0x40 MLOAD SWAP2 AND SWAP2 SWAP1 DUP3 SWAP1 PUSH32 0x8BE0079C531659141344CD1FD0A4F28419497F9722A3DAAFE3B4186F6B6457E0 SWAP1 PUSH1 0x0 SWAP1 LOG3 POP POP JUMP JUMPDEST DUP3 PUSH1 0x4 DUP2 ADD SWAP3 DUP3 ISZERO PUSH2 0x167 JUMPI SWAP2 PUSH1 0x20 MUL DUP3 ADD JUMPDEST DUP3 DUP2 GT ISZERO PUSH2 0x167 JUMPI DUP3 MLOAD DUP3 SSTORE SWAP2 PUSH1 0x20 ADD SWAP2 SWAP1 PUSH1 0x1 ADD SWAP1 PUSH2 0x14C JUMP JUMPDEST POP PUSH2 0x173 SWAP3 SWAP2 POP PUSH2 0x200 JUMP JUMPDEST POP SWAP1 JUMP JUMPDEST PUSH1 0x1 DUP4 ADD SWAP2 DUP4 SWAP1 DUP3 ISZERO PUSH2 0x167 JUMPI SWAP2 PUSH1 0x20 MUL DUP3 ADD PUSH1 0x0 JUMPDEST DUP4 DUP3 GT ISZERO PUSH2 0x1CA JUMPI DUP4 MLOAD DUP4 DUP3 PUSH2 0x100 EXP DUP2 SLOAD DUP2 PUSH1 0xFF MUL NOT AND SWAP1 DUP4 ISZERO ISZERO MUL OR SWAP1 SSTORE POP SWAP3 PUSH1 0x20 ADD SWAP3 PUSH1 0x1 ADD PUSH1 0x20 DUP2 PUSH1 0x0 ADD DIV SWAP3 DUP4 ADD SWAP3 PUSH1 0x1 SUB MUL PUSH2 0x18D JUMP JUMPDEST DUP1 ISZERO PUSH2 0x1F7 JUMPI DUP3 DUP2 PUSH2 0x100 EXP DUP2 SLOAD SWAP1 PUSH1 0xFF MUL NOT AND SWAP1 SSTORE PUSH1 0x1 ADD PUSH1 0x20 DUP2 PUSH1 0x0 ADD DIV SWAP3 DUP4 ADD SWAP3 PUSH1 0x1 SUB MUL PUSH2 0x1CA JUMP JUMPDEST POP POP PUSH2 0x173 SWAP3 SWAP2 POP JUMPDEST JUMPDEST DUP1 DUP3 GT ISZERO PUSH2 0x173 JUMPI PUSH1 0x0 DUP2 SSTORE PUSH1 0x1 ADD PUSH2 0x201 JUMP JUMPDEST DUP1 MLOAD PUSH1 0x1 PUSH1 0x1 PUSH1 0xA0 SHL SUB DUP2 AND DUP2 EQ PUSH2 0x22C JUMPI PUSH1 0x0 DUP1 REVERT JUMPDEST SWAP2 SWAP1 POP JUMP JUMPDEST DUP1 MLOAD DUP1 ISZERO ISZERO DUP2 EQ PUSH2 0x22C JUMPI PUSH1 0x0 DUP1 REVERT JUMPDEST PUSH1 0x40 MLOAD PUSH1 0x1F DUP3 ADD PUSH1 0x1F NOT AND DUP2 ADD PUSH1 0x1 PUSH1 0x1 PUSH1 0x40 SHL SUB DUP2 GT DUP3 DUP3 LT OR ISZERO PUSH2 0x277 JUMPI PUSH4 0x4E487B71 PUSH1 0xE0 SHL PUSH1 0x0 MSTORE PUSH1 0x41 PUSH1 0x4 MSTORE PUSH1 0x24 PUSH1 0x0 REVERT JUMPDEST PUSH1 0x40 MSTORE SWAP2 SWAP1 POP JUMP JUMPDEST PUSH1 0x0 DUP3 PUSH1 0x1F DUP4 ADD SLT PUSH2 0x290 JUMPI PUSH1 0x0 DUP1 REVERT JUMPDEST PUSH2 0x29A PUSH1 0x60 PUSH2 0x241 JUMP JUMPDEST DUP1 PUSH1 0x60 DUP5 ADD DUP6 DUP2 GT ISZERO PUSH2 0x2AC JUMPI PUSH1 0x0 DUP1 REVERT JUMPDEST DUP5 JUMPDEST DUP2 DUP2 LT ISZERO PUSH2 0x2CD JUMPI PUSH2 0x2BF DUP2 PUSH2 0x231 JUMP JUMPDEST DUP5 MSTORE PUSH1 0x20 SWAP4 DUP5 ADD SWAP4 ADD PUSH2 0x2AE JUMP JUMPDEST POP SWAP1 SWAP6 SWAP5 POP POP POP POP POP JUMP JUMPDEST PUSH1 0x0 DUP1 PUSH1 0x0 DUP1 PUSH1 0x0 DUP1 PUSH1 0x0 DUP1 PUSH1 0x0 PUSH2 0x1C0 DUP11 DUP13 SUB SLT ISZERO PUSH2 0x2F7 JUMPI PUSH1 0x0 DUP1 REVERT JUMPDEST PUSH2 0x300 DUP11 PUSH2 0x215 JUMP JUMPDEST PUSH1 0x20 DUP12 ADD MLOAD PUSH1 0x40 DUP13 ADD MLOAD SWAP2 SWAP11 POP SWAP9 POP SWAP7 POP PUSH2 0x31D PUSH1 0x60 DUP12 ADD PUSH2 0x215 JUMP JUMPDEST SWAP6 POP PUSH2 0x32B PUSH1 0x80 DUP12 ADD PUSH2 0x231 JUMP JUMPDEST PUSH1 0xA0 DUP12 ADD MLOAD SWAP1 SWAP6 POP SWAP4 POP PUSH2 0x341 PUSH1 0xC0 DUP12 ADD PUSH2 0x231 JUMP JUMPDEST SWAP3 POP DUP11 PUSH1 0xFF DUP12 ADD SLT PUSH2 0x352 JUMPI PUSH1 0x0 DUP1 REVERT JUMPDEST PUSH2 0x35C PUSH1 0x80 PUSH2 0x241 JUMP JUMPDEST DUP1 PUSH2 0x160 DUP13 ADD DUP14 DUP2 GT ISZERO PUSH2 0x36F JUMPI PUSH1 0x0 DUP1 REVERT JUMPDEST PUSH1 0xE0 DUP14 ADD JUMPDEST DUP2 DUP2 LT ISZERO PUSH2 0x38C JUMPI DUP1 MLOAD DUP5 MSTORE PUSH1 0x20 SWAP4 DUP5 ADD SWAP4 ADD PUSH2 0x374 JUMP JUMPDEST POP DUP2 SWAP5 POP PUSH2 0x39A DUP15 DUP3 PUSH2 0x27F JUMP JUMPDEST SWAP4 POP POP POP POP SWAP3 SWAP6 SWAP9 POP SWAP3 SWAP6 SWAP9 POP SWAP3 SWAP6 SWAP9 JUMP JUMPDEST PUSH1 0x80 MLOAD PUSH2 0x16CB PUSH2 0x3C7 PUSH1 0x0 CODECOPY PUSH1 0x0 PUSH2 0x1FF ADD MSTORE PUSH2 0x16CB PUSH1 0x0 RETURN INVALID PUSH1 0x80 PUSH1 0x40 MSTORE CALLVALUE DUP1 ISZERO PUSH2 0x10 JUMPI PUSH1 0x0 DUP1 REVERT JUMPDEST POP PUSH1 0x4 CALLDATASIZE LT PUSH2 0x57 JUMPI PUSH1 0x0 CALLDATALOAD PUSH1 0xE0 SHR DUP1 PUSH4 0x715018A6 EQ PUSH2 0x5C JUMPI DUP1 PUSH4 0x8DA5CB5B EQ PUSH2 0x66 JUMPI DUP1 PUSH4 0x9EFA4A87 EQ PUSH2 0x86 JUMPI DUP1 PUSH4 0xF2FDE38B EQ PUSH2 0xB9 JUMPI DUP1 PUSH4 0xFDC60967 EQ PUSH2 0xCC JUMPI JUMPDEST PUSH1 0x0 DUP1 REVERT JUMPDEST PUSH2 0x64 PUSH2 0xDF JUMP JUMPDEST STOP JUMPDEST PUSH1 0xA SLOAD PUSH1 0x40 MLOAD PUSH1 0x1 PUSH1 0x1 PUSH1 0xA0 SHL SUB SWAP1 SWAP2 AND DUP2 MSTORE PUSH1 0x20 ADD JUMPDEST PUSH1 0x40 MLOAD DUP1 SWAP2 SUB SWAP1 RETURN JUMPDEST PUSH2 0xA9 PUSH2 0x94 CALLDATASIZE PUSH1 0x4 PUSH2 0x1097 JUMP JUMPDEST PUSH1 0xC PUSH1 0x20 MSTORE PUSH1 0x0 SWAP1 DUP2 MSTORE PUSH1 0x40 SWAP1 KECCAK256 SLOAD PUSH1 0xFF AND DUP2 JUMP JUMPDEST PUSH1 0x40 MLOAD SWAP1 ISZERO ISZERO DUP2 MSTORE PUSH1 0x20 ADD PUSH2 0x7D JUMP JUMPDEST PUSH2 0x64 PUSH2 0xC7 CALLDATASIZE PUSH1 0x4 PUSH2 0x1097 JUMP JUMPDEST PUSH2 0xF3 JUMP JUMPDEST PUSH2 0x64 PUSH2 0xDA CALLDATASIZE PUSH1 0x4 PUSH2 0x11FB JUMP JUMPDEST PUSH2 0x136 JUMP JUMPDEST PUSH2 0xE7 PUSH2 0x3F8 JUMP JUMPDEST PUSH2 0xF1 PUSH1 0x0 PUSH2 0x425 JUMP JUMPDEST JUMP JUMPDEST PUSH2 0xFB PUSH2 0x3F8 JUMP JUMPDEST PUSH1 0x1 PUSH1 0x1 PUSH1 0xA0 SHL SUB DUP2 AND PUSH2 0x12A JUMPI PUSH1 0x40 MLOAD PUSH4 0x1E4FBDF7 PUSH1 0xE0 SHL DUP2 MSTORE PUSH1 0x0 PUSH1 0x4 DUP3 ADD MSTORE PUSH1 0x24 ADD JUMPDEST PUSH1 0x40 MLOAD DUP1 SWAP2 SUB SWAP1 REVERT JUMPDEST PUSH2 0x133 DUP2 PUSH2 0x425 JUMP JUMPDEST POP JUMP JUMPDEST PUSH1 0x60 DUP2 ADD MLOAD PUSH2 0x260 ADD MLOAD PUSH1 0x0 SLOAD EQ PUSH2 0x161 JUMPI PUSH1 0x40 MLOAD PUSH4 0x725A844F PUSH1 0xE0 SHL DUP2 MSTORE PUSH1 0x4 ADD PUSH1 0x40 MLOAD DUP1 SWAP2 SUB SWAP1 REVERT JUMPDEST PUSH1 0x60 DUP2 ADD MLOAD PUSH2 0x100 ADD MLOAD PUSH1 0x1 SLOAD EQ PUSH2 0x18C JUMPI PUSH1 0x40 MLOAD PUSH4 0x9763AFF PUSH1 0xE1 SHL DUP2 MSTORE PUSH1 0x4 ADD PUSH1 0x40 MLOAD DUP1 SWAP2 SUB SWAP1 REVERT JUMPDEST PUSH1 0x60 DUP2 ADD MLOAD PUSH1 0xE0 ADD MLOAD PUSH1 0x0 SWAP1 DUP2 MSTORE PUSH1 0xB PUSH1 0x20 MSTORE PUSH1 0x40 SWAP1 KECCAK256 SLOAD PUSH1 0xFF AND ISZERO PUSH2 0x1C5 JUMPI PUSH1 0x40 MLOAD PUSH4 0x1165E351 PUSH1 0xE1 SHL DUP2 MSTORE PUSH1 0x4 ADD PUSH1 0x40 MLOAD DUP1 SWAP2 SUB SWAP1 REVERT JUMPDEST PUSH1 0x40 DUP1 MLOAD PUSH1 0xC0 DUP2 ADD DUP3 MSTORE PUSH1 0x2 SLOAD PUSH1 0xFF SWAP1 DUP2 AND ISZERO ISZERO DUP3 MSTORE PUSH1 0x3 SLOAD PUSH1 0x20 DUP4 ADD MSTORE PUSH1 0x4 DUP1 SLOAD SWAP1 SWAP2 AND ISZERO ISZERO DUP3 DUP5 ADD MSTORE DUP3 MLOAD PUSH1 0x80 DUP2 ADD SWAP4 DUP5 SWAP1 MSTORE PUSH1 0x0 SWAP4 PUSH32 0x0 PUSH1 0x1 PUSH1 0x1 PUSH1 0xA0 SHL SUB AND SWAP4 PUSH4 0xD1EA63A2 SWAP4 SWAP1 SWAP3 PUSH1 0x60 DUP5 ADD SWAP3 SWAP1 SWAP2 PUSH1 0x5 SWAP2 DUP3 DUP5 JUMPDEST DUP2 SLOAD DUP2 MSTORE PUSH1 0x20 ADD SWAP1 PUSH1 0x1 ADD SWAP1 DUP1 DUP4 GT PUSH2 0x23D JUMPI POP POP POP SWAP2 DUP4 MSTORE POP POP PUSH1 0x40 DUP1 MLOAD PUSH1 0x60 DUP2 ADD SWAP2 DUP3 SWAP1 MSTORE PUSH1 0x20 SWAP1 SWAP3 ADD SWAP2 SWAP1 PUSH1 0x9 SWAP1 PUSH1 0x3 SWAP1 DUP3 PUSH1 0x0 DUP6 JUMPDEST DUP3 SLOAD PUSH2 0x100 DUP4 SWAP1 EXP SWAP1 DIV PUSH1 0xFF AND ISZERO ISZERO DUP2 MSTORE PUSH1 0x20 PUSH1 0x1 SWAP3 DUP4 ADD DUP2 DUP2 DIV SWAP5 DUP6 ADD SWAP5 SWAP1 SWAP4 SUB SWAP1 SWAP3 MUL SWAP2 ADD DUP1 DUP5 GT PUSH2 0x276 JUMPI SWAP1 POP POP POP POP POP POP DUP2 MSTORE PUSH1 0x20 ADD DUP6 DUP2 MSTORE POP PUSH1 0x40 MLOAD DUP3 PUSH4 0xFFFFFFFF AND PUSH1 0xE0 SHL DUP2 MSTORE PUSH1 0x4 ADD PUSH2 0x2D0 SWAP2 SWAP1 PUSH2 0x139C JUMP JUMPDEST PUSH2 0x180 PUSH1 0x40 MLOAD DUP1 DUP4 SUB DUP2 DUP7 GAS STATICCALL ISZERO DUP1 ISZERO PUSH2 0x2EE JUMPI RETURNDATASIZE PUSH1 0x0 DUP1 RETURNDATACOPY RETURNDATASIZE PUSH1 0x0 REVERT JUMPDEST POP POP POP POP PUSH1 0x40 MLOAD RETURNDATASIZE PUSH1 0x1F NOT PUSH1 0x1F DUP3 ADD AND DUP3 ADD DUP1 PUSH1 0x40 MSTORE POP DUP2 ADD SWAP1 PUSH2 0x312 SWAP2 SWAP1 PUSH2 0x14AA JUMP JUMPDEST SWAP1 POP PUSH2 0x321 DUP2 PUSH1 0xA0 ADD MLOAD PUSH2 0x477 JUMP JUMPDEST ISZERO PUSH2 0x39C JUMPI PUSH1 0x60 DUP2 ADD MLOAD PUSH1 0x0 SWAP1 DUP2 MSTORE PUSH1 0xB PUSH1 0x20 SWAP1 DUP2 MSTORE PUSH1 0x40 DUP1 DUP4 KECCAK256 DUP1 SLOAD PUSH1 0x1 PUSH1 0xFF NOT SWAP2 DUP3 AND DUP2 OR SWAP1 SWAP3 SSTORE DUP3 DUP7 ADD DUP1 MLOAD PUSH1 0x1 PUSH1 0x1 PUSH1 0xA0 SHL SUB SWAP1 DUP2 AND DUP8 MSTORE PUSH1 0xC SWAP1 SWAP6 MSTORE DUP4 DUP7 KECCAK256 DUP1 SLOAD SWAP1 SWAP3 AND SWAP1 SWAP3 OR SWAP1 SSTORE MLOAD SWAP1 MLOAD SWAP2 AND SWAP2 PUSH32 0x4674819A61E757AEECCD68B80E9D8C29E0A80AFB3120C96B0504C13EE4190D01 SWAP2 LOG2 POP POP JUMP JUMPDEST PUSH1 0x40 MLOAD PUSH3 0x461BCD PUSH1 0xE5 SHL DUP2 MSTORE PUSH1 0x20 PUSH1 0x4 DUP3 ADD MSTORE PUSH1 0x2B PUSH1 0x24 DUP3 ADD MSTORE PUSH32 0x4E6F7420656C696769626C653A204E6F742077697468696E2035206461797320 PUSH1 0x44 DUP3 ADD MSTORE PUSH11 0x6F66206269727468646179 PUSH1 0xA8 SHL PUSH1 0x64 DUP3 ADD MSTORE PUSH1 0x84 ADD PUSH2 0x121 JUMP JUMPDEST PUSH1 0xA SLOAD PUSH1 0x1 PUSH1 0x1 PUSH1 0xA0 SHL SUB AND CALLER EQ PUSH2 0xF1 JUMPI PUSH1 0x40 MLOAD PUSH4 0x118CDAA7 PUSH1 0xE0 SHL DUP2 MSTORE CALLER PUSH1 0x4 DUP3 ADD MSTORE PUSH1 0x24 ADD PUSH2 0x121 JUMP JUMPDEST PUSH1 0xA DUP1 SLOAD PUSH1 0x1 PUSH1 0x1 PUSH1 0xA0 SHL SUB DUP4 DUP2 AND PUSH1 0x1 PUSH1 0x1 PUSH1 0xA0 SHL SUB NOT DUP4 AND DUP2 OR SWAP1 SWAP4 SSTORE PUSH1 0x40 MLOAD SWAP2 AND SWAP2 SWAP1 DUP3 SWAP1 PUSH32 0x8BE0079C531659141344CD1FD0A4F28419497F9722A3DAAFE3B4186F6B6457E0 SWAP1 PUSH1 0x0 SWAP1 LOG3 POP POP JUMP JUMPDEST PUSH1 0x0 DUP1 PUSH2 0x483 DUP4 PUSH2 0x66F JUMP JUMPDEST SWAP1 POP PUSH1 0x0 PUSH2 0x490 DUP3 PUSH2 0x7FE JUMP JUMPDEST PUSH1 0x40 DUP1 MLOAD PUSH1 0x2 DUP1 DUP3 MSTORE DUP2 DUP4 ADD SWAP1 SWAP3 MSTORE SWAP2 SWAP3 POP DUP3 SWAP2 PUSH1 0x0 SWAP2 PUSH1 0x20 DUP3 ADD DUP2 DUP1 CALLDATASIZE DUP4 CALLDATACOPY POP POP PUSH1 0x40 DUP1 MLOAD PUSH1 0x2 DUP1 DUP3 MSTORE DUP2 DUP4 ADD SWAP1 SWAP3 MSTORE SWAP3 SWAP4 POP PUSH1 0x0 SWAP3 SWAP2 POP PUSH1 0x20 DUP3 ADD DUP2 DUP1 CALLDATASIZE DUP4 CALLDATACOPY ADD SWAP1 POP POP SWAP1 POP DUP3 PUSH1 0x0 DUP2 MLOAD DUP2 LT PUSH2 0x4EB JUMPI PUSH2 0x4EB PUSH2 0x12AE JUMP JUMPDEST PUSH1 0x20 ADD ADD MLOAD PUSH1 0xF8 SHR PUSH1 0xF8 SHL DUP3 PUSH1 0x0 DUP2 MLOAD DUP2 LT PUSH2 0x509 JUMPI PUSH2 0x509 PUSH2 0x12AE JUMP JUMPDEST PUSH1 0x20 ADD ADD SWAP1 PUSH1 0x1 PUSH1 0x1 PUSH1 0xF8 SHL SUB NOT AND SWAP1 DUP2 PUSH1 0x0 BYTE SWAP1 MSTORE8 POP DUP3 PUSH1 0x1 DUP2 MLOAD DUP2 LT PUSH2 0x533 JUMPI PUSH2 0x533 PUSH2 0x12AE JUMP JUMPDEST PUSH1 0x20 ADD ADD MLOAD PUSH1 0xF8 SHR PUSH1 0xF8 SHL DUP3 PUSH1 0x1 DUP2 MLOAD DUP2 LT PUSH2 0x551 JUMPI PUSH2 0x551 PUSH2 0x12AE JUMP JUMPDEST PUSH1 0x20 ADD ADD SWAP1 PUSH1 0x1 PUSH1 0x1 PUSH1 0xF8 SHL SUB NOT AND SWAP1 DUP2 PUSH1 0x0 BYTE SWAP1 MSTORE8 POP DUP3 PUSH1 0x3 DUP2 MLOAD DUP2 LT PUSH2 0x57B JUMPI PUSH2 0x57B PUSH2 0x12AE JUMP JUMPDEST PUSH1 0x20 ADD ADD MLOAD PUSH1 0xF8 SHR PUSH1 0xF8 SHL DUP2 PUSH1 0x0 DUP2 MLOAD DUP2 LT PUSH2 0x599 JUMPI PUSH2 0x599 PUSH2 0x12AE JUMP JUMPDEST PUSH1 0x20 ADD ADD SWAP1 PUSH1 0x1 PUSH1 0x1 PUSH1 0xF8 SHL SUB NOT AND SWAP1 DUP2 PUSH1 0x0 BYTE SWAP1 MSTORE8 POP DUP3 PUSH1 0x4 DUP2 MLOAD DUP2 LT PUSH2 0x5C3 JUMPI PUSH2 0x5C3 PUSH2 0x12AE JUMP JUMPDEST PUSH1 0x20 ADD ADD MLOAD PUSH1 0xF8 SHR PUSH1 0xF8 SHL DUP2 PUSH1 0x1 DUP2 MLOAD DUP2 LT PUSH2 0x5E1 JUMPI PUSH2 0x5E1 PUSH2 0x12AE JUMP JUMPDEST PUSH1 0x20 ADD ADD SWAP1 PUSH1 0x1 PUSH1 0x1 PUSH1 0xF8 SHL SUB NOT AND SWAP1 DUP2 PUSH1 0x0 BYTE SWAP1 MSTORE8 POP PUSH1 0x40 MLOAD DUP3 SWAP1 DUP3 SWAP1 PUSH1 0x0 SWAP1 PUSH2 0x612 SWAP1 DUP4 SWAP1 DUP6 SWAP1 PUSH1 0x20 ADD PUSH2 0x1560 JUMP JUMPDEST PUSH1 0x40 MLOAD PUSH1 0x20 DUP2 DUP4 SUB SUB DUP2 MSTORE SWAP1 PUSH1 0x40 MSTORE SWAP1 POP PUSH1 0x0 PUSH2 0x62E DUP3 PUSH2 0x81B JUMP JUMPDEST SWAP1 POP TIMESTAMP PUSH1 0x0 DUP3 DUP3 GT ISZERO PUSH2 0x64C JUMPI PUSH2 0x645 DUP4 DUP4 PUSH2 0x159E JUMP JUMPDEST SWAP1 POP PUSH2 0x659 JUMP JUMPDEST PUSH2 0x656 DUP3 DUP5 PUSH2 0x159E JUMP JUMPDEST SWAP1 POP JUMPDEST PUSH3 0x15180 LT ISZERO SWAP13 SWAP12 POP POP POP POP POP POP POP POP POP POP POP POP JUMP JUMPDEST DUP1 MLOAD PUSH1 0x60 SWAP1 PUSH32 0x30644E72E131A029B85045B68181585D2833E84879B9709143E1F593F0000001 GT ISZERO DUP1 PUSH2 0x6C6 JUMPI POP PUSH1 0x20 DUP3 ADD MLOAD PUSH32 0x30644E72E131A029B85045B68181585D2833E84879B9709143E1F593F0000001 GT ISZERO JUMPDEST DUP1 PUSH2 0x6F5 JUMPI POP PUSH1 0x40 DUP3 ADD MLOAD PUSH32 0x30644E72E131A029B85045B68181585D2833E84879B9709143E1F593F0000001 GT ISZERO JUMPDEST ISZERO PUSH2 0x713 JUMPI PUSH1 0x40 MLOAD PUSH4 0x3AE4ED6B PUSH1 0xE0 SHL DUP2 MSTORE PUSH1 0x4 ADD PUSH1 0x40 MLOAD DUP1 SWAP2 SUB SWAP1 REVERT JUMPDEST PUSH1 0x40 DUP1 MLOAD PUSH1 0x60 DUP2 ADD DUP3 MSTORE PUSH1 0x1F DUP1 DUP3 MSTORE PUSH1 0x20 DUP3 ADD DUP2 SWAP1 MSTORE DUP2 DUP4 ADD MSTORE DUP2 MLOAD PUSH1 0x5D DUP1 DUP3 MSTORE PUSH1 0x80 DUP3 ADD SWAP1 SWAP4 MSTORE SWAP1 SWAP2 PUSH1 0x0 SWAP2 SWAP1 PUSH1 0x20 DUP3 ADD DUP2 DUP1 CALLDATASIZE DUP4 CALLDATACOPY ADD SWAP1 POP POP SWAP1 POP PUSH1 0x0 DUP1 JUMPDEST PUSH1 0x3 DUP2 LT ISZERO PUSH2 0x7F4 JUMPI PUSH1 0x0 DUP7 DUP3 PUSH1 0x3 DUP2 LT PUSH2 0x771 JUMPI PUSH2 0x771 PUSH2 0x12AE JUMP JUMPDEST PUSH1 0x20 MUL ADD MLOAD SWAP1 POP PUSH1 0x0 JUMPDEST DUP6 DUP4 PUSH1 0x3 DUP2 LT PUSH2 0x78D JUMPI PUSH2 0x78D PUSH2 0x12AE JUMP JUMPDEST PUSH1 0x20 MUL ADD MLOAD PUSH1 0xFF AND DUP2 PUSH1 0xFF AND LT ISZERO PUSH2 0x7EA JUMPI DUP2 PUSH1 0xFF AND PUSH1 0xF8 SHL DUP6 DUP6 DUP1 PUSH2 0x7B2 SWAP1 PUSH2 0x15B1 JUMP JUMPDEST SWAP7 POP DUP2 MLOAD DUP2 LT PUSH2 0x7C4 JUMPI PUSH2 0x7C4 PUSH2 0x12AE JUMP JUMPDEST PUSH1 0x20 ADD ADD SWAP1 PUSH1 0x1 PUSH1 0x1 PUSH1 0xF8 SHL SUB NOT AND SWAP1 DUP2 PUSH1 0x0 BYTE SWAP1 MSTORE8 POP PUSH1 0x8 SWAP2 SWAP1 SWAP2 SHR SWAP1 PUSH1 0x1 ADD PUSH2 0x77B JUMP JUMPDEST POP POP PUSH1 0x1 ADD PUSH2 0x754 JUMP JUMPDEST POP SWAP1 SWAP5 SWAP4 POP POP POP POP JUMP JUMPDEST PUSH1 0x60 PUSH2 0x815 PUSH2 0x810 DUP4 PUSH1 0x39 PUSH1 0x3E PUSH2 0x9EE JUMP JUMPDEST PUSH2 0xAE4 JUMP JUMPDEST SWAP3 SWAP2 POP POP JUMP JUMPDEST DUP1 MLOAD PUSH1 0x0 SWAP1 DUP3 SWAP1 PUSH1 0x6 EQ PUSH2 0x842 JUMPI PUSH1 0x40 MLOAD PUSH4 0xB3375953 PUSH1 0xE0 SHL DUP2 MSTORE PUSH1 0x4 ADD PUSH1 0x40 MLOAD DUP1 SWAP2 SUB SWAP1 REVERT JUMPDEST PUSH1 0x31 PUSH1 0xF8 SHL DUP2 PUSH1 0x2 DUP2 MLOAD DUP2 LT PUSH2 0x85A JUMPI PUSH2 0x85A PUSH2 0x12AE JUMP JUMPDEST ADD PUSH1 0x20 ADD MLOAD PUSH1 0x1 PUSH1 0x1 PUSH1 0xF8 SHL SUB NOT AND GT DUP1 PUSH2 0x8C9 JUMPI POP DUP1 PUSH1 0x2 DUP2 MLOAD DUP2 LT PUSH2 0x883 JUMPI PUSH2 0x883 PUSH2 0x12AE JUMP JUMPDEST PUSH1 0x20 SWAP2 ADD ADD MLOAD PUSH1 0x1 PUSH1 0x1 PUSH1 0xF8 SHL SUB NOT AND PUSH1 0x31 PUSH1 0xF8 SHL EQ DUP1 ISZERO PUSH2 0x8C9 JUMPI POP PUSH1 0x19 PUSH1 0xF9 SHL DUP2 PUSH1 0x3 DUP2 MLOAD DUP2 LT PUSH2 0x8B8 JUMPI PUSH2 0x8B8 PUSH2 0x12AE JUMP JUMPDEST ADD PUSH1 0x20 ADD MLOAD PUSH1 0x1 PUSH1 0x1 PUSH1 0xF8 SHL SUB NOT AND GT JUMPDEST ISZERO PUSH2 0x8E7 JUMPI PUSH1 0x40 MLOAD PUSH4 0x4BCC4F1 PUSH1 0xE3 SHL DUP2 MSTORE PUSH1 0x4 ADD PUSH1 0x40 MLOAD DUP1 SWAP2 SUB SWAP1 REVERT JUMPDEST PUSH1 0x33 PUSH1 0xF8 SHL DUP2 PUSH1 0x4 DUP2 MLOAD DUP2 LT PUSH2 0x8FF JUMPI PUSH2 0x8FF PUSH2 0x12AE JUMP JUMPDEST ADD PUSH1 0x20 ADD MLOAD PUSH1 0x1 PUSH1 0x1 PUSH1 0xF8 SHL SUB NOT AND GT DUP1 PUSH2 0x96E JUMPI POP DUP1 PUSH1 0x4 DUP2 MLOAD DUP2 LT PUSH2 0x928 JUMPI PUSH2 0x928 PUSH2 0x12AE JUMP JUMPDEST PUSH1 0x20 SWAP2 ADD ADD MLOAD PUSH1 0x1 PUSH1 0x1 PUSH1 0xF8 SHL SUB NOT AND PUSH1 0x33 PUSH1 0xF8 SHL EQ DUP1 ISZERO PUSH2 0x96E JUMPI POP PUSH1 0x31 PUSH1 0xF8 SHL DUP2 PUSH1 0x5 DUP2 MLOAD DUP2 LT PUSH2 0x95D JUMPI PUSH2 0x95D PUSH2 0x12AE JUMP JUMPDEST ADD PUSH1 0x20 ADD MLOAD PUSH1 0x1 PUSH1 0x1 PUSH1 0xF8 SHL SUB NOT AND GT JUMPDEST ISZERO PUSH2 0x98C JUMPI PUSH1 0x40 MLOAD PUSH4 0x8930ACEF PUSH1 0xE0 SHL DUP2 MSTORE PUSH1 0x4 ADD PUSH1 0x40 MLOAD DUP1 SWAP2 SUB SWAP1 REVERT JUMPDEST PUSH1 0x0 PUSH2 0x9A3 PUSH2 0x99E DUP6 PUSH1 0x0 PUSH1 0x2 PUSH2 0xCB7 JUMP JUMPDEST PUSH2 0xD7A JUMP JUMPDEST PUSH2 0x9AF SWAP1 PUSH2 0x7D0 PUSH2 0x15CA JUMP JUMPDEST SWAP1 POP PUSH1 0x0 PUSH2 0x9C3 PUSH2 0x99E DUP7 PUSH1 0x2 PUSH1 0x4 PUSH2 0xCB7 JUMP JUMPDEST SWAP1 POP PUSH1 0x0 PUSH2 0x9D7 PUSH2 0x99E DUP8 PUSH1 0x4 PUSH1 0x6 PUSH2 0xCB7 JUMP JUMPDEST SWAP1 POP PUSH2 0x9E4 DUP4 DUP4 DUP4 PUSH2 0xDEA JUMP JUMPDEST SWAP7 SWAP6 POP POP POP POP POP POP JUMP JUMPDEST PUSH1 0x60 DUP2 DUP5 MLOAD GT PUSH2 0xA11 JUMPI PUSH1 0x40 MLOAD PUSH4 0xFE9A439F PUSH1 0xE0 SHL DUP2 MSTORE PUSH1 0x4 ADD PUSH1 0x40 MLOAD DUP1 SWAP2 SUB SWAP1 REVERT JUMPDEST PUSH1 0x0 PUSH2 0xA1D DUP5 DUP5 PUSH2 0x159E JUMP JUMPDEST PUSH2 0xA28 SWAP1 PUSH1 0x1 PUSH2 0x15CA JUMP JUMPDEST PUSH8 0xFFFFFFFFFFFFFFFF DUP2 GT ISZERO PUSH2 0xA40 JUMPI PUSH2 0xA40 PUSH2 0x10C7 JUMP JUMPDEST PUSH1 0x40 MLOAD SWAP1 DUP1 DUP3 MSTORE DUP1 PUSH1 0x1F ADD PUSH1 0x1F NOT AND PUSH1 0x20 ADD DUP3 ADD PUSH1 0x40 MSTORE DUP1 ISZERO PUSH2 0xA6A JUMPI PUSH1 0x20 DUP3 ADD DUP2 DUP1 CALLDATASIZE DUP4 CALLDATACOPY ADD SWAP1 POP JUMPDEST POP SWAP1 POP DUP4 JUMPDEST DUP4 DUP2 GT PUSH2 0xADB JUMPI DUP6 DUP2 DUP2 MLOAD DUP2 LT PUSH2 0xA88 JUMPI PUSH2 0xA88 PUSH2 0x12AE JUMP JUMPDEST ADD PUSH1 0x20 ADD MLOAD PUSH1 0x1 PUSH1 0x1 PUSH1 0xF8 SHL SUB NOT AND DUP3 PUSH2 0xAA2 DUP8 DUP5 PUSH2 0x159E JUMP JUMPDEST DUP2 MLOAD DUP2 LT PUSH2 0xAB2 JUMPI PUSH2 0xAB2 PUSH2 0x12AE JUMP JUMPDEST PUSH1 0x20 ADD ADD SWAP1 PUSH1 0x1 PUSH1 0x1 PUSH1 0xF8 SHL SUB NOT AND SWAP1 DUP2 PUSH1 0x0 BYTE SWAP1 MSTORE8 POP DUP1 PUSH2 0xAD3 DUP2 PUSH2 0x15B1 JUMP JUMPDEST SWAP2 POP POP PUSH2 0xA6F JUMP JUMPDEST POP SWAP5 SWAP4 POP POP POP POP JUMP JUMPDEST DUP1 MLOAD PUSH1 0x60 SWAP1 DUP3 SWAP1 PUSH1 0x6 EQ PUSH2 0xB0B JUMPI PUSH1 0x40 MLOAD PUSH4 0xB3375953 PUSH1 0xE0 SHL DUP2 MSTORE PUSH1 0x4 ADD PUSH1 0x40 MLOAD DUP1 SWAP2 SUB SWAP1 REVERT JUMPDEST PUSH1 0x31 PUSH1 0xF8 SHL DUP2 PUSH1 0x2 DUP2 MLOAD DUP2 LT PUSH2 0xB23 JUMPI PUSH2 0xB23 PUSH2 0x12AE JUMP JUMPDEST ADD PUSH1 0x20 ADD MLOAD PUSH1 0x1 PUSH1 0x1 PUSH1 0xF8 SHL SUB NOT AND GT DUP1 PUSH2 0xB92 JUMPI POP DUP1 PUSH1 0x2 DUP2 MLOAD DUP2 LT PUSH2 0xB4C JUMPI PUSH2 0xB4C PUSH2 0x12AE JUMP JUMPDEST PUSH1 0x20 SWAP2 ADD ADD MLOAD PUSH1 0x1 PUSH1 0x1 PUSH1 0xF8 SHL SUB NOT AND PUSH1 0x31 PUSH1 0xF8 SHL EQ DUP1 ISZERO PUSH2 0xB92 JUMPI POP PUSH1 0x19 PUSH1 0xF9 SHL DUP2 PUSH1 0x3 DUP2 MLOAD DUP2 LT PUSH2 0xB81 JUMPI PUSH2 0xB81 PUSH2 0x12AE JUMP JUMPDEST ADD PUSH1 0x20 ADD MLOAD PUSH1 0x1 PUSH1 0x1 PUSH1 0xF8 SHL SUB NOT AND GT JUMPDEST ISZERO PUSH2 0xBB0 JUMPI PUSH1 0x40 MLOAD PUSH4 0x4BCC4F1 PUSH1 0xE3 SHL DUP2 MSTORE PUSH1 0x4 ADD PUSH1 0x40 MLOAD DUP1 SWAP2 SUB SWAP1 REVERT JUMPDEST PUSH1 0x33 PUSH1 0xF8 SHL DUP2 PUSH1 0x4 DUP2 MLOAD DUP2 LT PUSH2 0xBC8 JUMPI PUSH2 0xBC8 PUSH2 0x12AE JUMP JUMPDEST ADD PUSH1 0x20 ADD MLOAD PUSH1 0x1 PUSH1 0x1 PUSH1 0xF8 SHL SUB NOT AND GT DUP1 PUSH2 0xC37 JUMPI POP DUP1 PUSH1 0x4 DUP2 MLOAD DUP2 LT PUSH2 0xBF1 JUMPI PUSH2 0xBF1 PUSH2 0x12AE JUMP JUMPDEST PUSH1 0x20 SWAP2 ADD ADD MLOAD PUSH1 0x1 PUSH1 0x1 PUSH1 0xF8 SHL SUB NOT AND PUSH1 0x33 PUSH1 0xF8 SHL EQ DUP1 ISZERO PUSH2 0xC37 JUMPI POP PUSH1 0x31 PUSH1 0xF8 SHL DUP2 PUSH1 0x5 DUP2 MLOAD DUP2 LT PUSH2 0xC26 JUMPI PUSH2 0xC26 PUSH2 0x12AE JUMP JUMPDEST ADD PUSH1 0x20 ADD MLOAD PUSH1 0x1 PUSH1 0x1 PUSH1 0xF8 SHL SUB NOT AND GT JUMPDEST ISZERO PUSH2 0xC55 JUMPI PUSH1 0x40 MLOAD PUSH4 0x8930ACEF PUSH1 0xE0 SHL DUP2 MSTORE PUSH1 0x4 ADD PUSH1 0x40 MLOAD DUP1 SWAP2 SUB SWAP1 REVERT JUMPDEST PUSH1 0x0 PUSH2 0xC64 DUP5 PUSH1 0x0 PUSH1 0x2 PUSH2 0xCB7 JUMP JUMPDEST SWAP1 POP PUSH1 0x0 PUSH2 0xC75 DUP6 PUSH1 0x2 PUSH1 0x4 PUSH2 0xCB7 JUMP JUMPDEST SWAP1 POP PUSH1 0x0 PUSH2 0xC86 DUP7 PUSH1 0x4 PUSH1 0x6 PUSH2 0xCB7 JUMP JUMPDEST SWAP1 POP DUP1 DUP3 DUP5 PUSH1 0x40 MLOAD PUSH1 0x20 ADD PUSH2 0xC9D SWAP4 SWAP3 SWAP2 SWAP1 PUSH2 0x15DD JUMP JUMPDEST PUSH1 0x40 MLOAD PUSH1 0x20 DUP2 DUP4 SUB SUB DUP2 MSTORE SWAP1 PUSH1 0x40 MSTORE SWAP5 POP POP POP POP POP SWAP2 SWAP1 POP JUMP JUMPDEST PUSH1 0x60 DUP4 PUSH1 0x0 PUSH2 0xCC6 DUP6 DUP6 PUSH2 0x159E JUMP JUMPDEST PUSH8 0xFFFFFFFFFFFFFFFF DUP2 GT ISZERO PUSH2 0xCDE JUMPI PUSH2 0xCDE PUSH2 0x10C7 JUMP JUMPDEST PUSH1 0x40 MLOAD SWAP1 DUP1 DUP3 MSTORE DUP1 PUSH1 0x1F ADD PUSH1 0x1F NOT AND PUSH1 0x20 ADD DUP3 ADD PUSH1 0x40 MSTORE DUP1 ISZERO PUSH2 0xD08 JUMPI PUSH1 0x20 DUP3 ADD DUP2 DUP1 CALLDATASIZE DUP4 CALLDATACOPY ADD SWAP1 POP JUMPDEST POP SWAP1 POP DUP5 JUMPDEST DUP5 DUP2 LT ISZERO PUSH2 0xD70 JUMPI DUP3 DUP2 DUP2 MLOAD DUP2 LT PUSH2 0xD27 JUMPI PUSH2 0xD27 PUSH2 0x12AE JUMP JUMPDEST ADD PUSH1 0x20 ADD MLOAD PUSH1 0x1 PUSH1 0x1 PUSH1 0xF8 SHL SUB NOT AND DUP3 PUSH2 0xD41 DUP9 DUP5 PUSH2 0x159E JUMP JUMPDEST DUP2 MLOAD DUP2 LT PUSH2 0xD51 JUMPI PUSH2 0xD51 PUSH2 0x12AE JUMP JUMPDEST PUSH1 0x20 ADD ADD SWAP1 PUSH1 0x1 PUSH1 0x1 PUSH1 0xF8 SHL SUB NOT AND SWAP1 DUP2 PUSH1 0x0 BYTE SWAP1 MSTORE8 POP PUSH1 0x1 ADD PUSH2 0xD0D JUMP JUMPDEST POP SWAP6 SWAP5 POP POP POP POP POP JUMP JUMPDEST DUP1 MLOAD PUSH1 0x0 SWAP1 DUP3 SWAP1 DUP3 SUB PUSH2 0xD90 JUMPI POP PUSH1 0x0 SWAP3 SWAP2 POP POP JUMP JUMPDEST PUSH1 0x0 DUP1 PUSH1 0x0 JUMPDEST DUP4 MLOAD DUP2 LT ISZERO PUSH2 0xADB JUMPI PUSH1 0x30 DUP5 DUP3 DUP2 MLOAD DUP2 LT PUSH2 0xDB3 JUMPI PUSH2 0xDB3 PUSH2 0x12AE JUMP JUMPDEST ADD PUSH1 0x20 ADD MLOAD PUSH2 0xDC5 SWAP2 SWAP1 PUSH1 0xF8 SHR PUSH2 0x1613 JUMP JUMPDEST PUSH1 0xFF AND SWAP3 POP DUP3 PUSH2 0xDD6 DUP4 PUSH1 0xA PUSH2 0x162C JUMP JUMPDEST PUSH2 0xDE0 SWAP2 SWAP1 PUSH2 0x15CA JUMP JUMPDEST SWAP2 POP PUSH1 0x1 ADD PUSH2 0xD96 JUMP JUMPDEST PUSH1 0x0 DUP1 PUSH2 0x7B2 DUP6 LT DUP1 PUSH2 0xDFE JUMPI POP PUSH2 0x834 DUP6 GT JUMPDEST ISZERO PUSH2 0xE1C JUMPI PUSH1 0x40 MLOAD PUSH4 0x5BD0325 PUSH1 0xE2 SHL DUP2 MSTORE PUSH1 0x4 ADD PUSH1 0x40 MLOAD DUP1 SWAP2 SUB SWAP1 REVERT JUMPDEST PUSH1 0x1 DUP5 LT DUP1 PUSH2 0xE2B JUMPI POP PUSH1 0xC DUP5 GT JUMPDEST ISZERO PUSH2 0xE49 JUMPI PUSH1 0x40 MLOAD PUSH4 0x4BCC4F1 PUSH1 0xE3 SHL DUP2 MSTORE PUSH1 0x4 ADD PUSH1 0x40 MLOAD DUP1 SWAP2 SUB SWAP1 REVERT JUMPDEST POP PUSH2 0x7B2 JUMPDEST DUP5 DUP2 PUSH2 0xFFFF AND LT ISZERO PUSH2 0xEA4 JUMPI PUSH2 0xE67 DUP2 PUSH2 0xFFFF AND PUSH2 0xFF6 JUMP JUMPDEST ISZERO PUSH2 0xE81 JUMPI PUSH2 0xE7A PUSH4 0x1E28500 DUP4 PUSH2 0x15CA JUMP JUMPDEST SWAP2 POP PUSH2 0xE92 JUMP JUMPDEST PUSH2 0xE8F PUSH4 0x1E13380 DUP4 PUSH2 0x15CA JUMP JUMPDEST SWAP2 POP JUMPDEST DUP1 PUSH2 0xE9C DUP2 PUSH2 0x1643 JUMP JUMPDEST SWAP2 POP POP PUSH2 0xE4E JUMP JUMPDEST PUSH2 0xEAC PUSH2 0x1078 JUMP JUMPDEST PUSH1 0x1F DUP2 MSTORE PUSH2 0xEB9 DUP7 PUSH2 0xFF6 JUMP JUMPDEST ISZERO PUSH2 0xECA JUMPI PUSH1 0x1D PUSH1 0x20 DUP3 ADD MSTORE PUSH2 0xED2 JUMP JUMPDEST PUSH1 0x1C PUSH1 0x20 DUP3 ADD MSTORE JUMPDEST PUSH1 0x1F PUSH1 0x40 DUP3 ADD DUP2 SWAP1 MSTORE PUSH1 0x1E PUSH1 0x60 DUP4 ADD DUP2 SWAP1 MSTORE PUSH1 0x80 DUP4 ADD DUP3 SWAP1 MSTORE PUSH1 0xA0 DUP4 ADD DUP2 SWAP1 MSTORE PUSH1 0xC0 DUP4 ADD DUP3 SWAP1 MSTORE PUSH1 0xE0 DUP4 ADD DUP3 SWAP1 MSTORE PUSH2 0x100 DUP4 ADD DUP2 SWAP1 MSTORE PUSH2 0x120 DUP4 ADD DUP3 SWAP1 MSTORE PUSH2 0x140 DUP4 ADD MSTORE PUSH2 0x160 DUP3 ADD MSTORE PUSH1 0x1 DUP5 LT DUP1 PUSH2 0xF4D JUMPI POP DUP1 PUSH2 0xF32 PUSH1 0x1 DUP8 PUSH2 0x159E JUMP JUMPDEST PUSH1 0xC DUP2 LT PUSH2 0xF42 JUMPI PUSH2 0xF42 PUSH2 0x12AE JUMP JUMPDEST PUSH1 0x20 MUL ADD MLOAD PUSH1 0xFF AND DUP5 GT JUMPDEST ISZERO PUSH2 0xF6B JUMPI PUSH1 0x40 MLOAD PUSH4 0x8930ACEF PUSH1 0xE0 SHL DUP2 MSTORE PUSH1 0x4 ADD PUSH1 0x40 MLOAD DUP1 SWAP2 SUB SWAP1 REVERT JUMPDEST PUSH1 0x1 SWAP2 POP JUMPDEST DUP5 DUP3 PUSH2 0xFFFF AND LT ISZERO PUSH2 0xFD4 JUMPI DUP1 PUSH2 0xF88 PUSH1 0x1 DUP5 PUSH2 0x1664 JUMP JUMPDEST PUSH2 0xFFFF AND PUSH1 0xC DUP2 LT PUSH2 0xF9C JUMPI PUSH2 0xF9C PUSH2 0x12AE JUMP JUMPDEST PUSH1 0x20 MUL ADD MLOAD PUSH2 0xFB1 SWAP1 PUSH1 0xFF AND PUSH3 0x15180 PUSH2 0x167E JUMP JUMPDEST PUSH2 0xFC0 SWAP1 PUSH3 0xFFFFFF AND DUP5 PUSH2 0x15CA JUMP JUMPDEST SWAP3 POP DUP2 PUSH2 0xFCC DUP2 PUSH2 0x1643 JUMP JUMPDEST SWAP3 POP POP PUSH2 0xF70 JUMP JUMPDEST PUSH2 0xFDF PUSH1 0x1 DUP6 PUSH2 0x159E JUMP JUMPDEST PUSH2 0xFEC SWAP1 PUSH3 0x15180 PUSH2 0x162C JUMP JUMPDEST PUSH2 0x9E4 SWAP1 DUP5 PUSH2 0x15CA JUMP JUMPDEST PUSH1 0x0 PUSH2 0x7B2 DUP3 LT DUP1 PUSH2 0x1009 JUMPI POP PUSH2 0x834 DUP3 GT JUMPDEST ISZERO PUSH2 0x1027 JUMPI PUSH1 0x40 MLOAD PUSH4 0x5BD0325 PUSH1 0xE2 SHL DUP2 MSTORE PUSH1 0x4 ADD PUSH1 0x40 MLOAD DUP1 SWAP2 SUB SWAP1 REVERT JUMPDEST PUSH2 0x1032 PUSH1 0x4 DUP4 PUSH2 0x169C JUMP JUMPDEST ISZERO PUSH2 0x103F JUMPI POP PUSH1 0x0 SWAP2 SWAP1 POP JUMP JUMPDEST PUSH2 0x104A PUSH1 0x64 DUP4 PUSH2 0x169C JUMP JUMPDEST ISZERO PUSH2 0x1057 JUMPI POP PUSH1 0x1 SWAP2 SWAP1 POP JUMP JUMPDEST PUSH2 0x1063 PUSH2 0x190 DUP4 PUSH2 0x169C JUMP JUMPDEST ISZERO PUSH2 0x1070 JUMPI POP PUSH1 0x0 SWAP2 SWAP1 POP JUMP JUMPDEST POP PUSH1 0x1 SWAP2 SWAP1 POP JUMP JUMPDEST PUSH1 0x40 MLOAD DUP1 PUSH2 0x180 ADD PUSH1 0x40 MSTORE DUP1 PUSH1 0xC SWAP1 PUSH1 0x20 DUP3 MUL DUP1 CALLDATASIZE DUP4 CALLDATACOPY POP SWAP2 SWAP3 SWAP2 POP POP JUMP JUMPDEST PUSH1 0x0 PUSH1 0x20 DUP3 DUP5 SUB SLT ISZERO PUSH2 0x10A9 JUMPI PUSH1 0x0 DUP1 REVERT JUMPDEST DUP2 CALLDATALOAD PUSH1 0x1 PUSH1 0x1 PUSH1 0xA0 SHL SUB DUP2 AND DUP2 EQ PUSH2 0x10C0 JUMPI PUSH1 0x0 DUP1 REVERT JUMPDEST SWAP4 SWAP3 POP POP POP JUMP JUMPDEST PUSH4 0x4E487B71 PUSH1 0xE0 SHL PUSH1 0x0 MSTORE PUSH1 0x41 PUSH1 0x4 MSTORE PUSH1 0x24 PUSH1 0x0 REVERT JUMPDEST PUSH1 0x40 MLOAD PUSH1 0x80 DUP2 ADD PUSH8 0xFFFFFFFFFFFFFFFF DUP2 GT DUP3 DUP3 LT OR ISZERO PUSH2 0x1100 JUMPI PUSH2 0x1100 PUSH2 0x10C7 JUMP JUMPDEST PUSH1 0x40 MSTORE SWAP1 JUMP JUMPDEST PUSH1 0x40 MLOAD PUSH1 0xE0 DUP2 ADD PUSH8 0xFFFFFFFFFFFFFFFF DUP2 GT DUP3 DUP3 LT OR ISZERO PUSH2 0x1100 JUMPI PUSH2 0x1100 PUSH2 0x10C7 JUMP JUMPDEST PUSH1 0x40 MLOAD PUSH1 0x1F DUP3 ADD PUSH1 0x1F NOT AND DUP2 ADD PUSH8 0xFFFFFFFFFFFFFFFF DUP2 GT DUP3 DUP3 LT OR ISZERO PUSH2 0x1152 JUMPI PUSH2 0x1152 PUSH2 0x10C7 JUMP JUMPDEST PUSH1 0x40 MSTORE SWAP2 SWAP1 POP JUMP JUMPDEST PUSH1 0x0 DUP3 PUSH1 0x1F DUP4 ADD SLT PUSH2 0x116B JUMPI PUSH1 0x0 DUP1 REVERT JUMPDEST PUSH1 0x0 PUSH2 0x1177 PUSH1 0x40 PUSH2 0x1129 JUMP JUMPDEST SWAP1 POP DUP1 PUSH1 0x40 DUP5 ADD DUP6 DUP2 GT ISZERO PUSH2 0x118B JUMPI PUSH1 0x0 DUP1 REVERT JUMPDEST DUP5 JUMPDEST DUP2 DUP2 LT ISZERO PUSH2 0x11A5 JUMPI DUP1 CALLDATALOAD DUP4 MSTORE PUSH1 0x20 SWAP3 DUP4 ADD SWAP3 ADD PUSH2 0x118D JUMP JUMPDEST POP SWAP2 SWAP6 SWAP5 POP POP POP POP POP JUMP JUMPDEST PUSH1 0x0 DUP3 PUSH1 0x1F DUP4 ADD SLT PUSH2 0x11C1 JUMPI PUSH1 0x0 DUP1 REVERT JUMPDEST PUSH1 0x0 PUSH2 0x2A0 PUSH2 0x11CF DUP2 PUSH2 0x1129 JUMP JUMPDEST SWAP2 POP DUP4 ADD DUP2 DUP6 DUP3 GT ISZERO PUSH2 0x11E1 JUMPI PUSH1 0x0 DUP1 REVERT JUMPDEST DUP5 JUMPDEST DUP3 DUP2 LT ISZERO PUSH2 0x11A5 JUMPI DUP1 CALLDATALOAD DUP3 MSTORE PUSH1 0x20 SWAP2 DUP3 ADD SWAP2 ADD PUSH2 0x11E3 JUMP JUMPDEST PUSH1 0x0 PUSH2 0x3A0 DUP3 DUP5 SUB SLT DUP1 ISZERO PUSH2 0x120F JUMPI PUSH1 0x0 DUP1 REVERT JUMPDEST POP PUSH1 0x0 PUSH2 0x121A PUSH2 0x10DD JUMP JUMPDEST PUSH2 0x1224 DUP6 DUP6 PUSH2 0x115A JUMP JUMPDEST DUP2 MSTORE DUP5 PUSH1 0x5F DUP6 ADD SLT PUSH2 0x1234 JUMPI DUP2 DUP3 REVERT JUMPDEST PUSH1 0x40 PUSH2 0x123F DUP2 PUSH2 0x1129 JUMP JUMPDEST DUP1 PUSH1 0xC0 DUP8 ADD DUP9 DUP2 GT ISZERO PUSH2 0x1250 JUMPI DUP6 DUP7 REVERT JUMPDEST PUSH1 0x40 DUP9 ADD SWAP6 POP JUMPDEST DUP1 DUP7 LT ISZERO PUSH2 0x127A JUMPI PUSH2 0x1269 DUP10 DUP8 PUSH2 0x115A JUMP JUMPDEST DUP4 MSTORE SWAP5 DUP4 ADD SWAP5 PUSH1 0x20 SWAP1 SWAP3 ADD SWAP2 PUSH2 0x1257 JUMP JUMPDEST DUP2 PUSH1 0x20 DUP7 ADD MSTORE PUSH2 0x128A DUP10 DUP3 PUSH2 0x115A JUMP JUMPDEST PUSH1 0x40 DUP7 ADD MSTORE POP POP POP POP PUSH2 0x12A1 DUP6 PUSH2 0x100 DUP7 ADD PUSH2 0x11B0 JUMP JUMPDEST PUSH1 0x60 DUP3 ADD MSTORE SWAP5 SWAP4 POP POP POP POP JUMP JUMPDEST PUSH4 0x4E487B71 PUSH1 0xE0 SHL PUSH1 0x0 MSTORE PUSH1 0x32 PUSH1 0x4 MSTORE PUSH1 0x24 PUSH1 0x0 REVERT JUMPDEST DUP1 PUSH1 0x0 JUMPDEST PUSH1 0x3 DUP2 LT ISZERO PUSH2 0x12E9 JUMPI DUP2 MLOAD ISZERO ISZERO DUP5 MSTORE PUSH1 0x20 SWAP4 DUP5 ADD SWAP4 SWAP1 SWAP2 ADD SWAP1 PUSH1 0x1 ADD PUSH2 0x12C8 JUMP JUMPDEST POP POP POP POP JUMP JUMPDEST DUP1 PUSH1 0x0 JUMPDEST PUSH1 0x2 DUP2 LT ISZERO PUSH2 0x12E9 JUMPI DUP2 MLOAD DUP5 MSTORE PUSH1 0x20 SWAP4 DUP5 ADD SWAP4 SWAP1 SWAP2 ADD SWAP1 PUSH1 0x1 ADD PUSH2 0x12F3 JUMP JUMPDEST PUSH2 0x131D DUP3 DUP3 MLOAD PUSH2 0x12EF JUMP JUMPDEST PUSH1 0x20 DUP2 ADD MLOAD PUSH1 0x40 DUP4 ADD PUSH1 0x0 JUMPDEST PUSH1 0x2 DUP2 LT ISZERO PUSH2 0x1353 JUMPI PUSH2 0x133D DUP3 DUP5 MLOAD PUSH2 0x12EF JUMP JUMPDEST PUSH1 0x20 SWAP3 SWAP1 SWAP3 ADD SWAP2 PUSH1 0x40 SWAP2 SWAP1 SWAP2 ADD SWAP1 PUSH1 0x1 ADD PUSH2 0x1329 JUMP JUMPDEST POP POP POP PUSH1 0x40 DUP2 ADD MLOAD PUSH2 0x1368 PUSH1 0xC0 DUP5 ADD DUP3 PUSH2 0x12EF JUMP JUMPDEST POP PUSH1 0x60 DUP2 ADD MLOAD PUSH2 0x100 DUP4 ADD PUSH1 0x0 JUMPDEST PUSH1 0x15 DUP2 LT ISZERO PUSH2 0x1395 JUMPI DUP3 MLOAD DUP3 MSTORE PUSH1 0x20 SWAP3 DUP4 ADD SWAP3 SWAP1 SWAP2 ADD SWAP1 PUSH1 0x1 ADD PUSH2 0x1376 JUMP JUMPDEST POP POP POP POP POP JUMP JUMPDEST PUSH1 0x0 PUSH2 0x4E0 DUP3 ADD SWAP1 POP DUP3 MLOAD ISZERO ISZERO DUP3 MSTORE PUSH1 0x20 DUP4 ADD MLOAD PUSH1 0x20 DUP4 ADD MSTORE PUSH1 0x40 DUP4 ADD MLOAD ISZERO ISZERO PUSH1 0x40 DUP4 ADD MSTORE PUSH1 0x60 DUP4 ADD MLOAD PUSH1 0x60 DUP4 ADD PUSH1 0x0 JUMPDEST PUSH1 0x4 DUP2 LT ISZERO PUSH2 0x13EC JUMPI DUP3 MLOAD DUP3 MSTORE PUSH1 0x20 SWAP3 DUP4 ADD SWAP3 SWAP1 SWAP2 ADD SWAP1 PUSH1 0x1 ADD PUSH2 0x13CD JUMP JUMPDEST POP POP POP PUSH1 0x80 DUP4 ADD MLOAD PUSH2 0x1401 PUSH1 0xE0 DUP5 ADD DUP3 PUSH2 0x12C4 JUMP JUMPDEST POP PUSH1 0xA0 DUP4 ADD MLOAD PUSH2 0x1415 PUSH2 0x140 DUP5 ADD DUP3 PUSH2 0x1312 JUMP JUMPDEST POP SWAP3 SWAP2 POP POP JUMP JUMPDEST PUSH1 0x0 PUSH2 0x1428 PUSH1 0x60 PUSH2 0x1129 JUMP JUMPDEST SWAP1 POP DUP1 PUSH1 0x60 DUP4 ADD DUP5 DUP2 GT ISZERO PUSH2 0x143C JUMPI PUSH1 0x0 DUP1 REVERT JUMPDEST DUP4 JUMPDEST DUP2 DUP2 LT ISZERO PUSH2 0x1456 JUMPI DUP1 MLOAD DUP4 MSTORE PUSH1 0x20 SWAP3 DUP4 ADD SWAP3 ADD PUSH2 0x143E JUMP JUMPDEST POP POP POP SWAP3 SWAP2 POP POP JUMP JUMPDEST PUSH1 0x0 DUP3 PUSH1 0x1F DUP4 ADD SLT PUSH2 0x1470 JUMPI PUSH1 0x0 DUP1 REVERT JUMPDEST PUSH1 0x0 PUSH2 0x147C PUSH1 0x80 PUSH2 0x1129 JUMP JUMPDEST SWAP1 POP DUP1 PUSH1 0x80 DUP5 ADD DUP6 DUP2 GT ISZERO PUSH2 0x1490 JUMPI PUSH1 0x0 DUP1 REVERT JUMPDEST DUP5 JUMPDEST DUP2 DUP2 LT ISZERO PUSH2 0x11A5 JUMPI DUP1 MLOAD DUP4 MSTORE PUSH1 0x20 SWAP3 DUP4 ADD SWAP3 ADD PUSH2 0x1492 JUMP JUMPDEST PUSH1 0x0 PUSH2 0x180 DUP3 DUP5 SUB SLT DUP1 ISZERO PUSH2 0x14BE JUMPI PUSH1 0x0 DUP1 REVERT JUMPDEST POP PUSH1 0x0 PUSH2 0x14C9 PUSH2 0x1106 JUMP JUMPDEST DUP4 MLOAD DUP2 MSTORE PUSH1 0x20 DUP1 DUP6 ADD MLOAD SWAP1 DUP3 ADD MSTORE PUSH1 0x40 DUP1 DUP6 ADD MLOAD SWAP1 DUP3 ADD MSTORE PUSH1 0x60 DUP1 DUP6 ADD MLOAD SWAP1 DUP3 ADD MSTORE PUSH1 0x80 DUP1 DUP6 ADD MLOAD SWAP1 DUP3 ADD MSTORE PUSH1 0xBF DUP5 ADD DUP6 SGT PUSH2 0x1503 JUMPI DUP2 DUP3 REVERT JUMPDEST PUSH2 0x1510 DUP6 PUSH1 0xA0 DUP7 ADD PUSH2 0x141C JUMP JUMPDEST PUSH1 0xA0 DUP3 ADD MSTORE PUSH2 0x1523 DUP6 PUSH2 0x100 DUP7 ADD PUSH2 0x145F JUMP JUMPDEST PUSH1 0xC0 DUP3 ADD MSTORE SWAP5 SWAP4 POP POP POP POP JUMP JUMPDEST PUSH1 0x0 DUP2 MLOAD PUSH1 0x0 JUMPDEST DUP2 DUP2 LT ISZERO PUSH2 0x1551 JUMPI PUSH1 0x20 DUP2 DUP6 ADD DUP2 ADD MLOAD DUP7 DUP4 ADD MSTORE ADD PUSH2 0x1537 JUMP JUMPDEST POP PUSH1 0x0 SWAP4 ADD SWAP3 DUP4 MSTORE POP SWAP1 SWAP2 SWAP1 POP JUMP JUMPDEST PUSH2 0x3235 PUSH1 0xF0 SHL DUP2 MSTORE PUSH1 0x0 PUSH2 0x1580 PUSH2 0x157A PUSH1 0x2 DUP5 ADD DUP7 PUSH2 0x1530 JUMP JUMPDEST DUP5 PUSH2 0x1530 JUMP JUMPDEST SWAP5 SWAP4 POP POP POP POP JUMP JUMPDEST PUSH4 0x4E487B71 PUSH1 0xE0 SHL PUSH1 0x0 MSTORE PUSH1 0x11 PUSH1 0x4 MSTORE PUSH1 0x24 PUSH1 0x0 REVERT JUMPDEST DUP2 DUP2 SUB DUP2 DUP2 GT ISZERO PUSH2 0x815 JUMPI PUSH2 0x815 PUSH2 0x1588 JUMP JUMPDEST PUSH1 0x0 PUSH1 0x1 DUP3 ADD PUSH2 0x15C3 JUMPI PUSH2 0x15C3 PUSH2 0x1588 JUMP JUMPDEST POP PUSH1 0x1 ADD SWAP1 JUMP JUMPDEST DUP1 DUP3 ADD DUP1 DUP3 GT ISZERO PUSH2 0x815 JUMPI PUSH2 0x815 PUSH2 0x1588 JUMP JUMPDEST PUSH1 0x0 PUSH2 0x15E9 DUP3 DUP7 PUSH2 0x1530 JUMP JUMPDEST PUSH1 0x2D PUSH1 0xF8 SHL DUP2 MSTORE PUSH2 0x15FD PUSH1 0x1 DUP3 ADD DUP7 PUSH2 0x1530 JUMP JUMPDEST SWAP1 POP PUSH1 0x2D PUSH1 0xF8 SHL DUP2 MSTORE PUSH2 0x9E4 PUSH1 0x1 DUP3 ADD DUP6 PUSH2 0x1530 JUMP JUMPDEST PUSH1 0xFF DUP3 DUP2 AND DUP3 DUP3 AND SUB SWAP1 DUP2 GT ISZERO PUSH2 0x815 JUMPI PUSH2 0x815 PUSH2 0x1588 JUMP JUMPDEST DUP1 DUP3 MUL DUP2 ISZERO DUP3 DUP3 DIV DUP5 EQ OR PUSH2 0x815 JUMPI PUSH2 0x815 PUSH2 0x1588 JUMP JUMPDEST PUSH1 0x0 PUSH2 0xFFFF DUP3 AND PUSH2 0xFFFF DUP2 SUB PUSH2 0x165B JUMPI PUSH2 0x165B PUSH2 0x1588 JUMP JUMPDEST PUSH1 0x1 ADD SWAP3 SWAP2 POP POP JUMP JUMPDEST PUSH2 0xFFFF DUP3 DUP2 AND DUP3 DUP3 AND SUB SWAP1 DUP2 GT ISZERO PUSH2 0x815 JUMPI PUSH2 0x815 PUSH2 0x1588 JUMP JUMPDEST PUSH3 0xFFFFFF DUP2 DUP2 AND DUP4 DUP3 AND MUL SWAP1 DUP2 AND SWAP1 DUP2 DUP2 EQ PUSH2 0x1415 JUMPI PUSH2 0x1415 PUSH2 0x1588 JUMP JUMPDEST PUSH1 0x0 DUP3 PUSH2 0x16B9 JUMPI PUSH4 0x4E487B71 PUSH1 0xE0 SHL PUSH1 0x0 MSTORE PUSH1 0x12 PUSH1 0x4 MSTORE PUSH1 0x24 PUSH1 0x0 REVERT JUMPDEST POP MOD SWAP1 JUMP INVALID LOG1 PUSH5 0x736F6C6343 STOP ADDMOD SHR STOP EXP "},"methodIdentifiers":{"isBirthday(address)":"9efa4a87","owner()":"8da5cb5b","renounceOwnership()":"715018a6","transferOwnership(address)":"f2fde38b","verifySelfProof((uint256[2],uint256[2][2],uint256[2],uint256[21]))":"fdc60967"}}}}}