{
  "_format": "hh-sol-artifact-1",
  "contractName": "SelfHappyBirthday",
  "sourceName": "contracts/HappyBirthday.sol",
  "abi": [
    {
      "inputs": [
        {
          "internalType": "address",
          "name": "_identityVerificationHub",
          "type": "address"
        },
        {
          "internalType": "uint256",
          "name": "_scope",
          "type": "uint256"
        },
        {
          "internalType": "uint256",
          "name": "_attestationId",
          "type": "uint256"
        },
        {
          "internalType": "address",
          "name": "_token",
          "type": "address"
        },
        {
          "internalType": "bool",
          "name": "_olderThanEnabled",
          "type": "bool"
        },
        {
          "internalType": "uint256",
          "name": "_olderThan",
          "type": "uint256"
        },
        {
          "internalType": "bool",
          "name": "_forbiddenCountriesEnabled",
          "type": "bool"
        },
        {
          "internalType": "uint256[4]",
          "name": "_forbiddenCountriesListPacked",
          "type": "uint256[4]"
        },
        {
          "internalType": "bool[3]",
          "name": "_ofacEnabled",
          "type": "bool[3]"
        }
      ],
      "stateMutability": "nonpayable",
      "type": "constructor"
    },
    {
      "inputs": [],
      "name": "INSUFFICIENT_CHARCODE_LEN",
      "type": "error"
    },
    {
      "inputs": [],
      "name": "InvalidAttestationId",
      "type": "error"
    },
    {
      "inputs": [],
      "name": "InvalidDateLength",
      "type": "error"
    },
    {
      "inputs": [],
      "name": "InvalidDayRange",
      "type": "error"
    },
    {
      "inputs": [],
      "name": "InvalidFieldElement",
      "type": "error"
    },
    {
      "inputs": [],
      "name": "InvalidMonthRange",
      "type": "error"
    },
    {
      "inputs": [],
      "name": "InvalidScope",
      "type": "error"
    },
    {
      "inputs": [],
      "name": "InvalidYearRange",
      "type": "error"
    },
    {
      "inputs": [
        {
          "internalType": "address",
          "name": "owner",
          "type": "address"
        }
      ],
      "name": "OwnableInvalidOwner",
      "type": "error"
    },
    {
      "inputs": [
        {
          "internalType": "address",
          "name": "account",
          "type": "address"
        }
      ],
      "name": "OwnableUnauthorizedAccount",
      "type": "error"
    },
    {
      "inputs": [],
      "name": "RegisteredNullifier",
      "type": "error"
    },
    {
      "anonymous": false,
      "inputs": [
        {
          "indexed": true,
          "internalType": "address",
          "name": "user",
          "type": "address"
        }
      ],
      "name": "Birthday",
      "type": "event"
    },
    {
      "anonymous": false,
      "inputs": [
        {
          "indexed": true,
          "internalType": "address",
          "name": "previousOwner",
          "type": "address"
        },
        {
          "indexed": true,
          "internalType": "address",
          "name": "newOwner",
          "type": "address"
        }
      ],
      "name": "OwnershipTransferred",
      "type": "event"
    },
    {
      "inputs": [
        {
          "internalType": "address",
          "name": "",
          "type": "address"
        }
      ],
      "name": "isBirthday",
      "outputs": [
        {
          "internalType": "bool",
          "name": "",
          "type": "bool"
        }
      ],
      "stateMutability": "view",
      "type": "function"
    },
    {
      "inputs": [],
      "name": "owner",
      "outputs": [
        {
          "internalType": "address",
          "name": "",
          "type": "address"
        }
      ],
      "stateMutability": "view",
      "type": "function"
    },
    {
      "inputs": [],
      "name": "renounceOwnership",
      "outputs": [],
      "stateMutability": "nonpayable",
      "type": "function"
    },
    {
      "inputs": [
        {
          "internalType": "address",
          "name": "newOwner",
          "type": "address"
        }
      ],
      "name": "transferOwnership",
      "outputs": [],
      "stateMutability": "nonpayable",
      "type": "function"
    },
    {
      "inputs": [
        {
          "components": [
            {
              "internalType": "uint256[2]",
              "name": "a",
              "type": "uint256[2]"
            },
            {
              "internalType": "uint256[2][2]",
              "name": "b",
              "type": "uint256[2][2]"
            },
            {
              "internalType": "uint256[2]",
              "name": "c",
              "type": "uint256[2]"
            },
            {
              "internalType": "uint256[21]",
              "name": "pubSignals",
              "type": "uint256[21]"
            }
          ],
          "internalType": "struct IVcAndDiscloseCircuitVerifier.VcAndDiscloseProof",
          "name": "proof",
          "type": "tuple"
        }
      ],
      "name": "verifySelfProof",
      "outputs": [],
      "stateMutability": "nonpayable",
      "type": "function"
    }
  ],
  "bytecode": "0x60a060405234801561001057600080fd5b50604051611a92380380611a9283398101604081905261002f916102d8565b336001600160a01b038a16608052600089905560018890556002805460ff19908116881515179091556003869055600480549091168515151781558a908a908a9089908990899089908990610088906005908490610139565b506100966009826003610177565b5050506001600160a01b03871695506100cf94505050505057604051631e4fbdf760e01b81526000600482015260240160405180910390fd5b6100d8816100e7565b505050505050505050506103ac565b600a80546001600160a01b038381166001600160a01b0319831681179093556040519116919082907f8be0079c531659141344cd1fd0a4f28419497f9722a3daafe3b4186f6b6457e090600090a35050565b8260048101928215610167579160200282015b8281111561016757825182559160200191906001019061014c565b50610173929150610200565b5090565b6001830191839082156101675791602002820160005b838211156101ca57835183826101000a81548160ff021916908315150217905550926020019260010160208160000104928301926001030261018d565b80156101f75782816101000a81549060ff02191690556001016020816000010492830192600103026101ca565b50506101739291505b5b808211156101735760008155600101610201565b80516001600160a01b038116811461022c57600080fd5b919050565b8051801515811461022c57600080fd5b604051601f8201601f191681016001600160401b038111828210171561027757634e487b7160e01b600052604160045260246000fd5b604052919050565b600082601f83011261029057600080fd5b61029a6060610241565b8060608401858111156102ac57600080fd5b845b818110156102cd576102bf81610231565b8452602093840193016102ae565b509095945050505050565b60008060008060008060008060006101c08a8c0312156102f757600080fd5b6103008a610215565b60208b015160408c0151919a509850965061031d60608b01610215565b955061032b60808b01610231565b60a08b0151909550935061034160c08b01610231565b92508a60ff8b011261035257600080fd5b61035c6080610241565b806101608c018d81111561036f57600080fd5b60e08d015b8181101561038c578051845260209384019301610374565b5081945061039a8e8261027f565b93505050509295985092959850929598565b6080516116cb6103c760003960006101ff01526116cb6000f3fe608060405234801561001057600080fd5b50600436106100575760003560e01c8063715018a61461005c5780638da5cb5b146100665780639efa4a8714610086578063f2fde38b146100b9578063fdc60967146100cc575b600080fd5b6100646100df565b005b600a546040516001600160a01b0390911681526020015b60405180910390f35b6100a9610094366004611097565b600c6020526000908152604090205460ff1681565b604051901515815260200161007d565b6100646100c7366004611097565b6100f3565b6100646100da3660046111fb565b610136565b6100e76103f8565b6100f16000610425565b565b6100fb6103f8565b6001600160a01b03811661012a57604051631e4fbdf760e01b8152600060048201526024015b60405180910390fd5b61013381610425565b50565b60608101516102600151600054146101615760405163725a844f60e01b815260040160405180910390fd5b606081015161010001516001541461018c576040516309763aff60e11b815260040160405180910390fd5b606081015160e001516000908152600b602052604090205460ff16156101c557604051631165e35160e11b815260040160405180910390fd5b6040805160c08101825260025460ff90811615158252600354602083015260048054909116151582840152825160808101938490526000937f00000000000000000000000000000000000000000000000000000000000000006001600160a01b03169363d1ea63a29390926060840192909160059182845b81548152602001906001019080831161023d57505050918352505060408051606081019182905260209092019190600990600390826000855b825461010083900a900460ff16151581526020600192830181810494850194909303909202910180841161027657905050505050508152602001858152506040518263ffffffff1660e01b81526004016102d0919061139c565b61018060405180830381865afa1580156102ee573d6000803e3d6000fd5b505050506040513d601f19601f8201168201806040525081019061031291906114aa565b90506103218160a00151610477565b1561039c5760608101516000908152600b602090815260408083208054600160ff19918216811790925582860180516001600160a01b039081168752600c909552838620805490921690921790555190519116917f4674819a61e757aeeccd68b80e9d8c29e0a80afb3120c96b0504c13ee4190d0191a25050565b60405162461bcd60e51b815260206004820152602b60248201527f4e6f7420656c696769626c653a204e6f742077697468696e203520646179732060448201526a6f6620626972746864617960a81b6064820152608401610121565b600a546001600160a01b031633146100f15760405163118cdaa760e01b8152336004820152602401610121565b600a80546001600160a01b038381166001600160a01b0319831681179093556040519116919082907f8be0079c531659141344cd1fd0a4f28419497f9722a3daafe3b4186f6b6457e090600090a35050565b6000806104838361066f565b90506000610490826107fe565b604080516002808252818301909252919250829160009160208201818036833750506040805160028082528183019092529293506000929150602082018180368337019050509050826000815181106104eb576104eb6112ae565b602001015160f81c60f81b82600081518110610509576105096112ae565b60200101906001600160f81b031916908160001a90535082600181518110610533576105336112ae565b602001015160f81c60f81b82600181518110610551576105516112ae565b60200101906001600160f81b031916908160001a9053508260038151811061057b5761057b6112ae565b602001015160f81c60f81b81600081518110610599576105996112ae565b60200101906001600160f81b031916908160001a905350826004815181106105c3576105c36112ae565b602001015160f81c60f81b816001815181106105e1576105e16112ae565b60200101906001600160f81b031916908160001a905350604051829082906000906106129083908590602001611560565b6040516020818303038152906040529050600061062e8261081b565b90504260008282111561064c57610645838361159e565b9050610659565b610656828461159e565b90505b6201518010159c9b505050505050505050505050565b80516060907f30644e72e131a029b85045b68181585d2833e84879b9709143e1f593f00000011115806106c6575060208201517f30644e72e131a029b85045b68181585d2833e84879b9709143e1f593f000000111155b806106f5575060408201517f30644e72e131a029b85045b68181585d2833e84879b9709143e1f593f000000111155b1561071357604051633ae4ed6b60e01b815260040160405180910390fd5b60408051606081018252601f80825260208201819052818301528151605d808252608082019093529091600091906020820181803683370190505090506000805b60038110156107f4576000868260038110610771576107716112ae565b6020020151905060005b85836003811061078d5761078d6112ae565b602002015160ff168160ff1610156107ea578160ff1660f81b8585806107b2906115b1565b9650815181106107c4576107c46112ae565b60200101906001600160f81b031916908160001a90535060089190911c9060010161077b565b5050600101610754565b5090949350505050565b6060610815610810836039603e6109ee565b610ae4565b92915050565b805160009082906006146108425760405163b337595360e01b815260040160405180910390fd5b603160f81b8160028151811061085a5761085a6112ae565b01602001516001600160f81b03191611806108c9575080600281518110610883576108836112ae565b6020910101516001600160f81b031916603160f81b1480156108c95750601960f91b816003815181106108b8576108b86112ae565b01602001516001600160f81b031916115b156108e7576040516304bcc4f160e31b815260040160405180910390fd5b603360f81b816004815181106108ff576108ff6112ae565b01602001516001600160f81b031916118061096e575080600481518110610928576109286112ae565b6020910101516001600160f81b031916603360f81b14801561096e5750603160f81b8160058151811061095d5761095d6112ae565b01602001516001600160f81b031916115b1561098c57604051638930acef60e01b815260040160405180910390fd5b60006109a361099e8560006002610cb7565b610d7a565b6109af906107d06115ca565b905060006109c361099e8660026004610cb7565b905060006109d761099e8760046006610cb7565b90506109e4838383610dea565b9695505050505050565b606081845111610a115760405163fe9a439f60e01b815260040160405180910390fd5b6000610a1d848461159e565b610a289060016115ca565b67ffffffffffffffff811115610a4057610a406110c7565b6040519080825280601f01601f191660200182016040528015610a6a576020820181803683370190505b509050835b838111610adb57858181518110610a8857610a886112ae565b01602001516001600160f81b03191682610aa2878461159e565b81518110610ab257610ab26112ae565b60200101906001600160f81b031916908160001a90535080610ad3816115b1565b915050610a6f565b50949350505050565b80516060908290600614610b0b5760405163b337595360e01b815260040160405180910390fd5b603160f81b81600281518110610b2357610b236112ae565b01602001516001600160f81b0319161180610b92575080600281518110610b4c57610b4c6112ae565b6020910101516001600160f81b031916603160f81b148015610b925750601960f91b81600381518110610b8157610b816112ae565b01602001516001600160f81b031916115b15610bb0576040516304bcc4f160e31b815260040160405180910390fd5b603360f81b81600481518110610bc857610bc86112ae565b01602001516001600160f81b0319161180610c37575080600481518110610bf157610bf16112ae565b6020910101516001600160f81b031916603360f81b148015610c375750603160f81b81600581518110610c2657610c266112ae565b01602001516001600160f81b031916115b15610c5557604051638930acef60e01b815260040160405180910390fd5b6000610c648460006002610cb7565b90506000610c758560026004610cb7565b90506000610c868660046006610cb7565b9050808284604051602001610c9d939291906115dd565b604051602081830303815290604052945050505050919050565b6060836000610cc6858561159e565b67ffffffffffffffff811115610cde57610cde6110c7565b6040519080825280601f01601f191660200182016040528015610d08576020820181803683370190505b509050845b84811015610d7057828181518110610d2757610d276112ae565b01602001516001600160f81b03191682610d41888461159e565b81518110610d5157610d516112ae565b60200101906001600160f81b031916908160001a905350600101610d0d565b5095945050505050565b805160009082908203610d905750600092915050565b60008060005b8351811015610adb576030848281518110610db357610db36112ae565b0160200151610dc5919060f81c611613565b60ff16925082610dd683600a61162c565b610de091906115ca565b9150600101610d96565b6000806107b2851080610dfe575061083485115b15610e1c576040516305bd032560e21b815260040160405180910390fd5b6001841080610e2b5750600c84115b15610e49576040516304bcc4f160e31b815260040160405180910390fd5b506107b25b848161ffff161015610ea457610e678161ffff16610ff6565b15610e8157610e7a6301e28500836115ca565b9150610e92565b610e8f6301e13380836115ca565b91505b80610e9c81611643565b915050610e4e565b610eac611078565b601f8152610eb986610ff6565b15610eca57601d6020820152610ed2565b601c60208201525b601f60408201819052601e606083018190526080830182905260a0830181905260c0830182905260e08301829052610100830181905261012083018290526101408301526101608201526001841080610f4d575080610f3260018761159e565b600c8110610f4257610f426112ae565b602002015160ff1684115b15610f6b57604051638930acef60e01b815260040160405180910390fd5b600191505b848261ffff161015610fd45780610f88600184611664565b61ffff16600c8110610f9c57610f9c6112ae565b6020020151610fb19060ff166201518061167e565b610fc09062ffffff16846115ca565b925081610fcc81611643565b925050610f70565b610fdf60018561159e565b610fec906201518061162c565b6109e490846115ca565b60006107b2821080611009575061083482115b15611027576040516305bd032560e21b815260040160405180910390fd5b61103260048361169c565b1561103f57506000919050565b61104a60648361169c565b1561105757506001919050565b6110636101908361169c565b1561107057506000919050565b506001919050565b604051806101800160405280600c906020820280368337509192915050565b6000602082840312156110a957600080fd5b81356001600160a01b03811681146110c057600080fd5b9392505050565b634e487b7160e01b600052604160045260246000fd5b6040516080810167ffffffffffffffff81118282101715611100576111006110c7565b60405290565b60405160e0810167ffffffffffffffff81118282101715611100576111006110c7565b604051601f8201601f1916810167ffffffffffffffff81118282101715611152576111526110c7565b604052919050565b600082601f83011261116b57600080fd5b60006111776040611129565b905080604084018581111561118b57600080fd5b845b818110156111a557803583526020928301920161118d565b509195945050505050565b600082601f8301126111c157600080fd5b60006102a06111cf81611129565b9150830181858211156111e157600080fd5b845b828110156111a55780358252602091820191016111e3565b60006103a082840312801561120f57600080fd5b50600061121a6110dd565b611224858561115a565b815284605f850112611234578182fd5b604061123f81611129565b8060c0870188811115611250578586fd5b6040880195505b8086101561127a57611269898761115a565b835294830194602090920191611257565b81602086015261128a898261115a565b6040860152505050506112a18561010086016111b0565b6060820152949350505050565b634e487b7160e01b600052603260045260246000fd5b8060005b60038110156112e957815115158452602093840193909101906001016112c8565b50505050565b8060005b60028110156112e95781518452602093840193909101906001016112f3565b61131d8282516112ef565b60208101516040830160005b60028110156113535761133d8284516112ef565b6020929092019160409190910190600101611329565b505050604081015161136860c08401826112ef565b506060810151610100830160005b6015811015611395578251825260209283019290910190600101611376565b5050505050565b60006104e0820190508251151582526020830151602083015260408301511515604083015260608301516060830160005b60048110156113ec5782518252602092830192909101906001016113cd565b505050608083015161140160e08401826112c4565b5060a0830151611415610140840182611312565b5092915050565b60006114286060611129565b905080606083018481111561143c57600080fd5b835b8181101561145657805183526020928301920161143e565b50505092915050565b600082601f83011261147057600080fd5b600061147c6080611129565b905080608084018581111561149057600080fd5b845b818110156111a5578051835260209283019201611492565b60006101808284031280156114be57600080fd5b5060006114c9611106565b835181526020808501519082015260408085015190820152606080850151908201526080808501519082015260bf84018513611503578182fd5b6115108560a0860161141c565b60a082015261152385610100860161145f565b60c0820152949350505050565b6000815160005b818110156115515760208185018101518683015201611537565b50600093019283525090919050565b61323560f01b8152600061158061157a6002840186611530565b84611530565b949350505050565b634e487b7160e01b600052601160045260246000fd5b8181038181111561081557610815611588565b6000600182016115c3576115c3611588565b5060010190565b8082018082111561081557610815611588565b60006115e98286611530565b602d60f81b81526115fd6001820186611530565b9050602d60f81b81526109e46001820185611530565b60ff828116828216039081111561081557610815611588565b808202811582820484141761081557610815611588565b600061ffff821661ffff810361165b5761165b611588565b60010192915050565b61ffff828116828216039081111561081557610815611588565b62ffffff818116838216029081169081811461141557611415611588565b6000826116b957634e487b7160e01b600052601260045260246000fd5b50069056fea164736f6c634300081c000a",
  "linkReferences": {},
  "deployedLinkReferences": {}
}